Component: ARM Compiler 5.06 update 7 (build 960) Tool: armlink [4d3601]

==============================================================================

Section Cross References

    isr.o(i.DMA1_Channel1_IRQHandler) refers to hal_dma.o(i.DMA_GetFlagStatus) for DMA_GetFlagStatus
    isr.o(i.DMA1_Channel1_IRQHandler) refers to hal_dma.o(i.DMA_ClearFlag) for DMA_ClearFlag
    isr.o(i.DMA1_Channel2_3_IRQHandler) refers to hal_dma.o(i.DMA_GetFlagStatus) for DMA_GetFlagStatus
    isr.o(i.DMA1_Channel2_3_IRQHandler) refers to hal_dma.o(i.DMA_ClearFlag) for DMA_ClearFlag
    isr.o(i.DMA1_Channel3_IRQHandler) refers to hal_dma.o(i.DMA_GetFlagStatus) for DMA_GetFlagStatus
    isr.o(i.DMA1_Channel3_IRQHandler) refers to hal_dma.o(i.DMA_ClearFlag) for DMA_ClearFlag
    isr.o(i.DMA1_Channel4_IRQHandler) refers to hal_dma.o(i.DMA_GetFlagStatus) for DMA_GetFlagStatus
    isr.o(i.DMA1_Channel4_IRQHandler) refers to hal_dma.o(i.DMA_ClearFlag) for DMA_ClearFlag
    isr.o(i.DMA1_Channel5_IRQHandler) refers to hal_dma.o(i.DMA_GetFlagStatus) for DMA_GetFlagStatus
    isr.o(i.DMA1_Channel5_IRQHandler) refers to hal_dma.o(i.DMA_ClearFlag) for DMA_ClearFlag
    isr.o(i.DMA1_Channel6_IRQHandler) refers to hal_dma.o(i.DMA_GetFlagStatus) for DMA_GetFlagStatus
    isr.o(i.DMA1_Channel6_IRQHandler) refers to hal_dma.o(i.DMA_ClearFlag) for DMA_ClearFlag
    isr.o(i.DMA1_Channel7_IRQHandler) refers to hal_dma.o(i.DMA_GetFlagStatus) for DMA_GetFlagStatus
    isr.o(i.DMA1_Channel7_IRQHandler) refers to hal_dma.o(i.DMA_ClearFlag) for DMA_ClearFlag
    isr.o(i.DMA2_Channel1_IRQHandler) refers to hal_dma.o(i.DMA_GetFlagStatus) for DMA_GetFlagStatus
    isr.o(i.DMA2_Channel1_IRQHandler) refers to hal_dma.o(i.DMA_ClearFlag) for DMA_ClearFlag
    isr.o(i.DMA2_Channel2_3_IRQHandler) refers to hal_dma.o(i.DMA_GetFlagStatus) for DMA_GetFlagStatus
    isr.o(i.DMA2_Channel2_3_IRQHandler) refers to hal_dma.o(i.DMA_ClearFlag) for DMA_ClearFlag
==============================================================================

Removing Unused input sections from the image.

    Removing isr.o(.rev16_text), (4 bytes).
    Removing isr.o(.revsh_text), (4 bytes).
    Removing isr.o(.rrx_text), (6 bytes).
    Removing isr.o(i.DMA1_Channel2_3_IRQHandler), (20 bytes).
    Removing isr.o(i.DMA2_Channel2_3_IRQHandler), (20 bytes).
    Removing main.o(.rev16_text), (4 bytes).
    Removing main.o(.revsh_text), (4 bytes).
    Removing main.o(.rrx_text), (6 bytes).
    Removing allinit.o(.rev16_text), (4 bytes).
    Removing allinit.o(.revsh_text), (4 bytes).
    Removing allinit.o(.rrx_text), (6 bytes).
    Removing control.o(.rev16_text), (4 bytes).
    Removing control.o(.revsh_text), (4 bytes).
    Removing control.o(.rrx_text), (6 bytes).
    Removing control.o(i.Turn_Off), (6 bytes).
    Removing math.o(.rev16_text), (4 bytes).
    Removing math.o(.revsh_text), (4 bytes).
    Removing math.o(.rrx_text), (6 bytes).
==============================================================================

Image Symbol Table

    Local Symbols

    Symbol Name                              Value     Ov Type        Size  Object(Section)

    ../clib/../cmprslib/zerorunl2.c          0x00000000   Number         0  __dczerorl2.o ABSOLUTE
    ../clib/microlib/division.c              0x00000000   Number         0  uldiv.o ABSOLUTE
    ../clib/microlib/errno.c                 0x00000000   Number         0  errno.o ABSOLUTE
    ../clib/microlib/init/entry.s            0x00000000   Number         0  entry12b.o ABSOLUTE
    ../clib/microlib/init/entry.s            0x00000000   Number         0  entry12a.o ABSOLUTE
    ../clib/microlib/init/entry.s            0x00000000   Number         0  entry11b.o ABSOLUTE
    ../clib/microlib/init/entry.s            0x00000000   Number         0  entry11a.o ABSOLUTE
    ../clib/microlib/init/entry.s            0x00000000   Number         0  entry10b.o ABSOLUTE
    ../clib/microlib/init/entry.s            0x00000000   Number         0  entry10a.o ABSOLUTE
    ../clib/microlib/init/entry.s            0x00000000   Number         0  entry.o ABSOLUTE
    ../clib/microlib/init/entry.s            0x00000000   Number         0  entry9b.o ABSOLUTE
    ../clib/microlib/init/entry.s            0x00000000   Number         0  entry9a.o ABSOLUTE
    ../clib/microlib/init/entry.s            0x00000000   Number         0  entry2.o ABSOLUTE
    ../clib/microlib/init/entry.s            0x00000000   Number         0  entry8b.o ABSOLUTE
    ../clib/microlib/init/entry.s            0x00000000   Number         0  entry5.o ABSOLUTE
    ../clib/microlib/init/entry.s            0x00000000   Number         0  entry8a.o ABSOLUTE
    ../clib/microlib/init/entry.s            0x00000000   Number         0  entry7a.o ABSOLUTE
    ../clib/microlib/init/entry.s            0x00000000   Number         0  entry7b.o ABSOLUTE
    ../clib/microlib/longlong.c              0x00000000   Number         0  llshl.o ABSOLUTE
    ../clib/microlib/longlong.c              0x00000000   Number         0  llsshr.o ABSOLUTE
    ../clib/microlib/longlong.c              0x00000000   Number         0  llushr.o ABSOLUTE
    ../clib/microlib/string/memcpy.c         0x00000000   Number         0  memcpyb.o ABSOLUTE
    ../clib/microlib/string/memcpy.c         0x00000000   Number         0  memcpya.o ABSOLUTE
    ../clib/microlib/stubs.s                 0x00000000   Number         0  iusefp.o ABSOLUTE
    ../fplib/microlib/d2f.c                  0x00000000   Number         0  d2f.o ABSOLUTE
    ../fplib/microlib/f2d.c                  0x00000000   Number         0  f2d.o ABSOLUTE
    ../fplib/microlib/fpadd.c                0x00000000   Number         0  fadd.o ABSOLUTE
    ../fplib/microlib/fpadd.c                0x00000000   Number         0  dadd.o ABSOLUTE
    ../fplib/microlib/fpdiv.c                0x00000000   Number         0  ddiv.o ABSOLUTE
    ../fplib/microlib/fpdiv.c                0x00000000   Number         0  fdiv.o ABSOLUTE
    ../fplib/microlib/fpepilogue.c           0x00000000   Number         0  depilogue.o ABSOLUTE
    ../fplib/microlib/fpepilogue.c           0x00000000   Number         0  fepilogue.o ABSOLUTE
    ../fplib/microlib/fpfix.c                0x00000000   Number         0  ffixui.o ABSOLUTE
    ../fplib/microlib/fpfix.c                0x00000000   Number         0  ffixi.o ABSOLUTE
    ../fplib/microlib/fpfix.c                0x00000000   Number         0  dfixi.o ABSOLUTE
    ../fplib/microlib/fpflt.c                0x00000000   Number         0  ffltui.o ABSOLUTE
    ../fplib/microlib/fpflt.c                0x00000000   Number         0  dfltui.o ABSOLUTE
    ../fplib/microlib/fpflt.c                0x00000000   Number         0  dflti.o ABSOLUTE
    ../fplib/microlib/fpflt.c                0x00000000   Number         0  fflti.o ABSOLUTE
    ../fplib/microlib/fpmul.c                0x00000000   Number         0  fmul.o ABSOLUTE
    ../fplib/microlib/fpmul.c                0x00000000   Number         0  dmul.o ABSOLUTE
    ../fplib/microlib/fpscalb.c              0x00000000   Number         0  dscalb.o ABSOLUTE
    ../fplib/microlib/fpsqrt.c               0x00000000   Number         0  dsqrt.o ABSOLUTE
    ../mathlib/asin.c                        0x00000000   Number         0  asin_x.o ABSOLUTE
    ../mathlib/asin.c                        0x00000000   Number         0  asin.o ABSOLUTE
    ../mathlib/atan.c                        0x00000000   Number         0  atan_x.o ABSOLUTE
    ../mathlib/atan.c                        0x00000000   Number         0  atan.o ABSOLUTE
    ../mathlib/atan2.c                       0x00000000   Number         0  atan2_x.o ABSOLUTE
    ../mathlib/atan2.c                       0x00000000   Number         0  atan2.o ABSOLUTE
    ../mathlib/dunder.c                      0x00000000   Number         0  dunder.o ABSOLUTE
    ../mathlib/fpclassify.c                  0x00000000   Number         0  fpclassify.o ABSOLUTE
    ../mathlib/poly.c                        0x00000000   Number         0  poly.o ABSOLUTE
    ../mathlib/qnan.c                        0x00000000   Number         0  qnan.o ABSOLUTE
    ../mathlib/sqrt.c                        0x00000000   Number         0  sqrt_x.o ABSOLUTE
    ../mathlib/sqrt.c                        0x00000000   Number         0  sqrt.o ABSOLUTE
    ..\..\Libraries\Device\MM32F327x\HAL_Lib\Src\hal_adc.c 0x00000000   Number         0  hal_adc.o ABSOLUTE
    ..\..\Libraries\Device\MM32F327x\HAL_Lib\Src\hal_bkp.c 0x00000000   Number         0  hal_bkp.o ABSOLUTE
    ..\..\Libraries\Device\MM32F327x\HAL_Lib\Src\hal_can.c 0x00000000   Number         0  hal_can.o ABSOLUTE
    ..\..\Libraries\Device\MM32F327x\HAL_Lib\Src\hal_comp.c 0x00000000   Number         0  hal_comp.o ABSOLUTE
    ..\..\Libraries\Device\MM32F327x\HAL_Lib\Src\hal_crc.c 0x00000000   Number         0  hal_crc.o ABSOLUTE
    ..\..\Libraries\Device\MM32F327x\HAL_Lib\Src\hal_crs.c 0x00000000   Number         0  hal_crs.o ABSOLUTE
    ..\..\Libraries\Device\MM32F327x\HAL_Lib\Src\hal_dac.c 0x00000000   Number         0  hal_dac.o ABSOLUTE
    ..\..\Libraries\Device\MM32F327x\HAL_Lib\Src\hal_dbg.c 0x00000000   Number         0  hal_dbg.o ABSOLUTE
    ..\..\Libraries\Device\MM32F327x\HAL_Lib\Src\hal_dma.c 0x00000000   Number         0  hal_dma.o ABSOLUTE
    ..\..\Libraries\Device\MM32F327x\HAL_Lib\Src\hal_eth.c 0x00000000   Number         0  hal_eth.o ABSOLUTE
    ..\..\Libraries\Device\MM32F327x\HAL_Lib\Src\hal_exti.c 0x00000000   Number         0  hal_exti.o ABSOLUTE
    ..\..\Libraries\Device\MM32F327x\HAL_Lib\Src\hal_flash.c 0x00000000   Number         0  hal_flash.o ABSOLUTE
    ..\..\Libraries\Device\MM32F327x\HAL_Lib\Src\hal_fsmc.c 0x00000000   Number         0  hal_fsmc.o ABSOLUTE
    ..\..\Libraries\Device\MM32F327x\HAL_Lib\Src\hal_gpio.c 0x00000000   Number         0  hal_gpio.o ABSOLUTE
    ..\..\Libraries\Device\MM32F327x\HAL_Lib\Src\hal_i2c.c 0x00000000   Number         0  hal_i2c.o ABSOLUTE
    ..\..\Libraries\Device\MM32F327x\HAL_Lib\Src\hal_iwdg.c 0x00000000   Number         0  hal_iwdg.o ABSOLUTE
    ..\..\Libraries\Device\MM32F327x\HAL_Lib\Src\hal_misc.c 0x00000000   Number         0  hal_misc.o ABSOLUTE
    ..\..\Libraries\Device\MM32F327x\HAL_Lib\Src\hal_pwr.c 0x00000000   Number         0  hal_pwr.o ABSOLUTE
    ..\..\Libraries\Device\MM32F327x\HAL_Lib\Src\hal_rcc.c 0x00000000   Number         0  hal_rcc.o ABSOLUTE
    ..\..\Libraries\Device\MM32F327x\HAL_Lib\Src\hal_rtc.c 0x00000000   Number         0  hal_rtc.o ABSOLUTE
    ..\..\Libraries\Device\MM32F327x\HAL_Lib\Src\hal_sdio.c 0x00000000   Number         0  hal_sdio.o ABSOLUTE
    ..\..\Libraries\Device\MM32F327x\HAL_Lib\Src\hal_spi.c 0x00000000   Number         0  hal_spi.o ABSOLUTE
    ..\..\Libraries\Device\MM32F327x\HAL_Lib\Src\hal_tim.c 0x00000000   Number         0  hal_tim.o ABSOLUTE
    ..\..\Libraries\Device\MM32F327x\HAL_Lib\Src\hal_uart.c 0x00000000   Number         0  hal_uart.o ABSOLUTE
    ..\..\Libraries\Device\MM32F327x\HAL_Lib\Src\hal_uid.c 0x00000000   Number         0  hal_uid.o ABSOLUTE
    ..\..\Libraries\Device\MM32F327x\HAL_Lib\Src\hal_ver.c 0x00000000   Number         0  hal_ver.o ABSOLUTE
    ..\..\Libraries\Device\MM32F327x\HAL_Lib\Src\hal_wwdg.c 0x00000000   Number         0  hal_wwdg.o ABSOLUTE
    ..\..\Libraries\Device\MM32F327x\Source\KEIL_StartAsm\startup_mm32f327x_keil.s 0x00000000   Number         0  startup_mm32f327x_keil.o ABSOLUTE
    ..\..\Libraries\Device\MM32F327x\Source\system_mm32f327x.c 0x00000000   Number         0  system_mm32f327x.o ABSOLUTE
    ..\..\Libraries\seekfree_libraries\board\board.c 0x00000000   Number         0  board.o ABSOLUTE
    ..\..\Libraries\seekfree_libraries\common\SEEKFREE_PRINTF.c 0x00000000   Number         0  seekfree_printf.o ABSOLUTE
    ..\..\Libraries\seekfree_libraries\common\common.c 0x00000000   Number         0  common.o ABSOLUTE
    ..\..\Libraries\seekfree_libraries\zf_adc.c 0x00000000   Number         0  zf_adc.o ABSOLUTE
    ..\..\Libraries\seekfree_libraries\zf_camera.c 0x00000000   Number         0  zf_camera.o ABSOLUTE
    ..\..\Libraries\seekfree_libraries\zf_exti.c 0x00000000   Number         0  zf_exti.o ABSOLUTE
    ..\..\Libraries\seekfree_libraries\zf_flash.c 0x00000000   Number         0  zf_flash.o ABSOLUTE
    ..\..\Libraries\seekfree_libraries\zf_fsmc.c 0x00000000   Number         0  zf_fsmc.o ABSOLUTE
    ..\..\Libraries\seekfree_libraries\zf_gpio.c 0x00000000   Number         0  zf_gpio.o ABSOLUTE
    ..\..\Libraries\seekfree_libraries\zf_pit.c 0x00000000   Number         0  zf_pit.o ABSOLUTE
    ..\..\Libraries\seekfree_libraries\zf_pwm.c 0x00000000   Number         0  zf_pwm.o ABSOLUTE
    ..\..\Libraries\seekfree_libraries\zf_spi.c 0x00000000   Number         0  zf_spi.o ABSOLUTE
    ..\..\Libraries\seekfree_libraries\zf_systick.c 0x00000000   Number         0  zf_systick.o ABSOLUTE
    ..\..\Libraries\seekfree_libraries\zf_tim.c 0x00000000   Number         0  zf_tim.o ABSOLUTE
    ..\..\Libraries\seekfree_libraries\zf_uart.c 0x00000000   Number         0  zf_uart.o ABSOLUTE
    ..\..\Libraries\seekfree_peripheral\SEEKFREE_18TFT.c 0x00000000   Number         0  seekfree_18tft.o ABSOLUTE
    ..\..\Libraries\seekfree_peripheral\SEEKFREE_FONT.c 0x00000000   Number         0  seekfree_font.o ABSOLUTE
    ..\..\Libraries\seekfree_peripheral\SEEKFREE_IIC.c 0x00000000   Number         0  seekfree_iic.o ABSOLUTE
    ..\..\Libraries\seekfree_peripheral\SEEKFREE_MPU6050.c 0x00000000   Number         0  seekfree_mpu6050.o ABSOLUTE
    ..\..\Libraries\seekfree_peripheral\SEEKFREE_OLED.c 0x00000000   Number         0  seekfree_oled.o ABSOLUTE
    ..\CODE\MovingFilter.c                   0x00000000   Number         0  movingfilter.o ABSOLUTE
    ..\CODE\allinit.c                        0x00000000   Number         0  allinit.o ABSOLUTE
    ..\CODE\control.c                        0x00000000   Number         0  control.o ABSOLUTE
    ..\CODE\elect.c                          0x00000000   Number         0  elect.o ABSOLUTE
    ..\CODE\imu.c                            0x00000000   Number         0  imu.o ABSOLUTE
    ..\CODE\key.c                            0x00000000   Number         0  key.o ABSOLUTE
    ..\CODE\math.c                           0x00000000   Number         0  math.o ABSOLUTE
    ..\CODE\motor.c                          0x00000000   Number         0  motor.o ABSOLUTE
    ..\CODE\nomalize.c                       0x00000000   Number         0  nomalize.o ABSOLUTE
    ..\CODE\pwm.c                            0x00000000   Number         0  pwm.o ABSOLUTE
    ..\CODE\scheduler.c                      0x00000000   Number         0  scheduler.o ABSOLUTE
    ..\CODE\test.c                           0x00000000   Number         0  test.o ABSOLUTE
    ..\CODE\tim.c                            0x00000000   Number         0  tim.o ABSOLUTE
    ..\CODE\ui.c                             0x00000000   Number         0  ui.o ABSOLUTE
    ..\CODE\ultrasonic.c                     0x00000000   Number         0  ultrasonic.o ABSOLUTE
    ..\USER\src\isr.c                        0x00000000   Number         0  isr.o ABSOLUTE
    ..\USER\src\main.c                       0x00000000   Number         0  main.o ABSOLUTE
    ..\\..\\Libraries\\Device\\MM32F327x\\HAL_Lib\\Src\\hal_adc.c 0x00000000   Number         0  hal_adc.o ABSOLUTE
    ..\\..\\Libraries\\Device\\MM32F327x\\HAL_Lib\\Src\\hal_bkp.c 0x00000000   Number         0  hal_bkp.o ABSOLUTE
    ..\\..\\Libraries\\Device\\MM32F327x\\HAL_Lib\\Src\\hal_can.c 0x00000000   Number         0  hal_can.o ABSOLUTE
    ..\\..\\Libraries\\Device\\MM32F327x\\HAL_Lib\\Src\\hal_comp.c 0x00000000   Number         0  hal_comp.o ABSOLUTE
    ..\\..\\Libraries\\Device\\MM32F327x\\HAL_Lib\\Src\\hal_crc.c 0x00000000   Number         0  hal_crc.o ABSOLUTE
    ..\\..\\Libraries\\Device\\MM32F327x\\HAL_Lib\\Src\\hal_crs.c 0x00000000   Number         0  hal_crs.o ABSOLUTE
    ..\\..\\Libraries\\Device\\MM32F327x\\HAL_Lib\\Src\\hal_dac.c 0x00000000   Number         0  hal_dac.o ABSOLUTE
    ..\\..\\Libraries\\Device\\MM32F327x\\HAL_Lib\\Src\\hal_dbg.c 0x00000000   Number         0  hal_dbg.o ABSOLUTE
    ..\\..\\Libraries\\Device\\MM32F327x\\HAL_Lib\\Src\\hal_dma.c 0x00000000   Number         0  hal_dma.o ABSOLUTE
    ..\\..\\Libraries\\Device\\MM32F327x\\HAL_Lib\\Src\\hal_eth.c 0x00000000   Number         0  hal_eth.o ABSOLUTE
    ..\\..\\Libraries\\Device\\MM32F327x\\HAL_Lib\\Src\\hal_exti.c 0x00000000   Number         0  hal_exti.o ABSOLUTE
    ..\\..\\Libraries\\Device\\MM32F327x\\HAL_Lib\\Src\\hal_flash.c 0x00000000   Number         0  hal_flash.o ABSOLUTE
    ..\\..\\Libraries\\Device\\MM32F327x\\HAL_Lib\\Src\\hal_fsmc.c 0x00000000   Number         0  hal_fsmc.o ABSOLUTE
    ..\\..\\Libraries\\Device\\MM32F327x\\HAL_Lib\\Src\\hal_gpio.c 0x00000000   Number         0  hal_gpio.o ABSOLUTE
    ..\\..\\Libraries\\Device\\MM32F327x\\HAL_Lib\\Src\\hal_i2c.c 0x00000000   Number         0  hal_i2c.o ABSOLUTE
    ..\\..\\Libraries\\Device\\MM32F327x\\HAL_Lib\\Src\\hal_iwdg.c 0x00000000   Number         0  hal_iwdg.o ABSOLUTE
    ..\\..\\Libraries\\Device\\MM32F327x\\HAL_Lib\\Src\\hal_misc.c 0x00000000   Number         0  hal_misc.o ABSOLUTE
    ..\\..\\Libraries\\Device\\MM32F327x\\HAL_Lib\\Src\\hal_pwr.c 0x00000000   Number         0  hal_pwr.o ABSOLUTE
    ..\\..\\Libraries\\Device\\MM32F327x\\HAL_Lib\\Src\\hal_rcc.c 0x00000000   Number         0  hal_rcc.o ABSOLUTE
    ..\\..\\Libraries\\Device\\MM32F327x\\HAL_Lib\\Src\\hal_rtc.c 0x00000000   Number         0  hal_rtc.o ABSOLUTE
    ..\\..\\Libraries\\Device\\MM32F327x\\HAL_Lib\\Src\\hal_sdio.c 0x00000000   Number         0  hal_sdio.o ABSOLUTE
    ..\\..\\Libraries\\Device\\MM32F327x\\HAL_Lib\\Src\\hal_spi.c 0x00000000   Number         0  hal_spi.o ABSOLUTE
    ..\\..\\Libraries\\Device\\MM32F327x\\HAL_Lib\\Src\\hal_tim.c 0x00000000   Number         0  hal_tim.o ABSOLUTE
    ..\\..\\Libraries\\Device\\MM32F327x\\HAL_Lib\\Src\\hal_uart.c 0x00000000   Number         0  hal_uart.o ABSOLUTE
    ..\\..\\Libraries\\Device\\MM32F327x\\HAL_Lib\\Src\\hal_uid.c 0x00000000   Number         0  hal_uid.o ABSOLUTE
    ..\\..\\Libraries\\Device\\MM32F327x\\HAL_Lib\\Src\\hal_ver.c 0x00000000   Number         0  hal_ver.o ABSOLUTE
    ..\\..\\Libraries\\Device\\MM32F327x\\HAL_Lib\\Src\\hal_wwdg.c 0x00000000   Number         0  hal_wwdg.o ABSOLUTE
    ..\\..\\Libraries\\Device\\MM32F327x\\Source\\system_mm32f327x.c 0x00000000   Number         0  system_mm32f327x.o ABSOLUTE
    ..\\..\\Libraries\\seekfree_libraries\\board\\board.c 0x00000000   Number         0  board.o ABSOLUTE
    ..\\..\\Libraries\\seekfree_libraries\\common\\SEEKFREE_PRINTF.c 0x00000000   Number         0  seekfree_printf.o ABSOLUTE
    ..\\..\\Libraries\\seekfree_libraries\\common\\common.c 0x00000000   Number         0  common.o ABSOLUTE
    ..\\..\\Libraries\\seekfree_libraries\\zf_adc.c 0x00000000   Number         0  zf_adc.o ABSOLUTE
    ..\\..\\Libraries\\seekfree_libraries\\zf_camera.c 0x00000000   Number         0  zf_camera.o ABSOLUTE
    ..\\..\\Libraries\\seekfree_libraries\\zf_exti.c 0x00000000   Number         0  zf_exti.o ABSOLUTE
    ..\\..\\Libraries\\seekfree_libraries\\zf_flash.c 0x00000000   Number         0  zf_flash.o ABSOLUTE
    ..\\..\\Libraries\\seekfree_libraries\\zf_fsmc.c 0x00000000   Number         0  zf_fsmc.o ABSOLUTE
    ..\\..\\Libraries\\seekfree_libraries\\zf_gpio.c 0x00000000   Number         0  zf_gpio.o ABSOLUTE
    ..\\..\\Libraries\\seekfree_libraries\\zf_pit.c 0x00000000   Number         0  zf_pit.o ABSOLUTE
    ..\\..\\Libraries\\seekfree_libraries\\zf_pwm.c 0x00000000   Number         0  zf_pwm.o ABSOLUTE
    ..\\..\\Libraries\\seekfree_libraries\\zf_spi.c 0x00000000   Number         0  zf_spi.o ABSOLUTE
    ..\\..\\Libraries\\seekfree_libraries\\zf_systick.c 0x00000000   Number         0  zf_systick.o ABSOLUTE
    ..\\..\\Libraries\\seekfree_libraries\\zf_tim.c 0x00000000   Number         0  zf_tim.o ABSOLUTE
    ..\\..\\Libraries\\seekfree_libraries\\zf_uart.c 0x00000000   Number         0  zf_uart.o ABSOLUTE
    ..\\..\\Libraries\\seekfree_peripheral\\SEEKFREE_18TFT.c 0x00000000   Number         0  seekfree_18tft.o ABSOLUTE
    ..\\..\\Libraries\\seekfree_peripheral\\SEEKFREE_FONT.c 0x00000000   Number         0  seekfree_font.o ABSOLUTE
    ..\\..\\Libraries\\seekfree_peripheral\\SEEKFREE_IIC.c 0x00000000   Number         0  seekfree_iic.o ABSOLUTE
    ..\\..\\Libraries\\seekfree_peripheral\\SEEKFREE_MPU6050.c 0x00000000   Number         0  seekfree_mpu6050.o ABSOLUTE
    ..\\..\\Libraries\\seekfree_peripheral\\SEEKFREE_OLED.c 0x00000000   Number         0  seekfree_oled.o ABSOLUTE
    ..\\CODE\\MovingFilter.c                 0x00000000   Number         0  movingfilter.o ABSOLUTE
    ..\\CODE\\allinit.c                      0x00000000   Number         0  allinit.o ABSOLUTE
    ..\\CODE\\control.c                      0x00000000   Number         0  control.o ABSOLUTE
    ..\\CODE\\elect.c                        0x00000000   Number         0  elect.o ABSOLUTE
    ..\\CODE\\key.c                          0x00000000   Number         0  key.o ABSOLUTE
    ..\\CODE\\math.c                         0x00000000   Number         0  math.o ABSOLUTE
    ..\\CODE\\motor.c                        0x00000000   Number         0  motor.o ABSOLUTE
    ..\\CODE\\nomalize.c                     0x00000000   Number         0  nomalize.o ABSOLUTE
    ..\\CODE\\pwm.c                          0x00000000   Number         0  pwm.o ABSOLUTE
    ..\\CODE\\scheduler.c                    0x00000000   Number         0  scheduler.o ABSOLUTE
    ..\\CODE\\test.c                         0x00000000   Number         0  test.o ABSOLUTE
    ..\\CODE\\tim.c                          0x00000000   Number         0  tim.o ABSOLUTE
    ..\\CODE\\ui.c                           0x00000000   Number         0  ui.o ABSOLUTE
    ..\\CODE\\ultrasonic.c                   0x00000000   Number         0  ultrasonic.o ABSOLUTE
    ..\\USER\\src\\isr.c                     0x00000000   Number         0  isr.o ABSOLUTE
    ..\\USER\\src\\main.c                    0x00000000   Number         0  main.o ABSOLUTE
    cdcmple.s                                0x00000000   Number         0  cdcmple.o ABSOLUTE
    cdrcmple.s                               0x00000000   Number         0  cdrcmple.o ABSOLUTE
    cfcmple.s                                0x00000000   Number         0  cfcmple.o ABSOLUTE
    cfrcmple.s                               0x00000000   Number         0  cfrcmple.o ABSOLUTE
    dc.s                                     0x00000000   Number         0  dc.o ABSOLUTE
    handlers.s                               0x00000000   Number         0  handlers.o ABSOLUTE
    init.s                                   0x00000000   Number         0  init.o ABSOLUTE
    RESET                                    0x08000000   Section      400  startup_mm32f327x_keil.o(RESET)
    .ARM.Collect$$$$00000000                 0x08000190   Section        0  entry.o(.ARM.Collect$$$$00000000)
    .ARM.Collect$$$$00000001                 0x08000190   Section        4  entry2.o(.ARM.Collect$$$$00000001)
    .ARM.Collect$$$$00000004                 0x08000194   Section        4  entry5.o(.ARM.Collect$$$$00000004)
    .ARM.Collect$$$$00000008                 0x08000198   Section        0  entry7b.o(.ARM.Collect$$$$00000008)
    .ARM.Collect$$$$0000000A                 0x08000198   Section        0  entry8b.o(.ARM.Collect$$$$0000000A)
    .ARM.Collect$$$$0000000B                 0x08000198   Section        8  entry9a.o(.ARM.Collect$$$$0000000B)
    .ARM.Collect$$$$0000000E                 0x080001a0   Section        4  entry12b.o(.ARM.Collect$$$$0000000E)
    .ARM.Collect$$$$0000000F                 0x080001a4   Section        0  entry10a.o(.ARM.Collect$$$$0000000F)
    .ARM.Collect$$$$00000011                 0x080001a4   Section        0  entry11a.o(.ARM.Collect$$$$00000011)
    .ARM.Collect$$$$00002712                 0x080001a4   Section        4  entry2.o(.ARM.Collect$$$$00002712)
    __lit__00000000                          0x080001a4   Data           4  entry2.o(.ARM.Collect$$$$00002712)
    .text                                    0x080001a8   Section       36  startup_mm32f327x_keil.o(.text)
    .text                                    0x080001cc   Section        0  uldiv.o(.text)
    .text                                    0x0800022e   Section        0  memcpya.o(.text)
    .text                                    0x08000252   Section        0  fadd.o(.text)
    .text                                    0x08000302   Section        0  fmul.o(.text)
    .text                                    0x08000366   Section        0  fdiv.o(.text)
    .text                                    0x080003e2   Section        0  dadd.o(.text)
    .text                                    0x08000530   Section        0  dmul.o(.text)
    .text                                    0x08000614   Section        0  fflti.o(.text)
    .text                                    0x08000626   Section        0  ffltui.o(.text)
    .text                                    0x08000630   Section        0  dflti.o(.text)
    .text                                    0x08000652   Section        0  dfltui.o(.text)
    .text                                    0x0800066c   Section        0  ffixi.o(.text)
    .text                                    0x0800069e   Section        0  ffixui.o(.text)
    .text                                    0x080006c6   Section        0  dfixi.o(.text)
    .text                                    0x08000704   Section        0  f2d.o(.text)
    .text                                    0x0800072c   Section       48  cdcmple.o(.text)
    .text                                    0x0800075c   Section       48  cdrcmple.o(.text)
    .text                                    0x0800078c   Section        0  d2f.o(.text)
    .text                                    0x080007c4   Section       20  cfcmple.o(.text)
    .text                                    0x080007d8   Section       20  cfrcmple.o(.text)
    .text                                    0x080007ec   Section        0  llshl.o(.text)
    .text                                    0x0800080a   Section        0  llushr.o(.text)
    .text                                    0x0800082a   Section        0  llsshr.o(.text)
    .text                                    0x0800084e   Section        0  iusefp.o(.text)
    .text                                    0x0800084e   Section        0  fepilogue.o(.text)
    .text                                    0x080008bc   Section        0  depilogue.o(.text)
    .text                                    0x08000976   Section        0  ddiv.o(.text)
    .text                                    0x08000a54   Section        0  dscalb.o(.text)
    .text                                    0x08000a84   Section       36  init.o(.text)
    .text                                    0x08000aa8   Section        0  dsqrt.o(.text)
    .text                                    0x08000b4a   Section        0  __dczerorl2.o(.text)
    i.AutoCalPllFactor                       0x08000ba0   Section        0  system_mm32f327x.o(i.AutoCalPllFactor)
    i.BusFault_Handler                       0x08000c06   Section        0  common.o(i.BusFault_Handler)
    i.DELAY_xUs                              0x08000c0a   Section        0  system_mm32f327x.o(i.DELAY_xUs)
    DELAY_xUs                                0x08000c0b   Thumb Code    68  system_mm32f327x.o(i.DELAY_xUs)
    i.DMA1_Channel1_IRQHandler               0x08000c4e   Section        0  isr.o(i.DMA1_Channel1_IRQHandler)
    i.DMA1_Channel3_IRQHandler               0x08000c62   Section        0  isr.o(i.DMA1_Channel3_IRQHandler)
    i.DMA1_Channel4_IRQHandler               0x08000c78   Section        0  isr.o(i.DMA1_Channel4_IRQHandler)
    i.DMA1_Channel5_IRQHandler               0x08000c8e   Section        0  isr.o(i.DMA1_Channel5_IRQHandler)
    i.DMA1_Channel6_IRQHandler               0x08000ca4   Section        0  isr.o(i.DMA1_Channel6_IRQHandler)
    i.DMA1_Channel7_IRQHandler               0x08000cba   Section        0  isr.o(i.DMA1_Channel7_IRQHandler)
    i.DMA2_Channel1_IRQHandler               0x08000cd0   Section        0  isr.o(i.DMA2_Channel1_IRQHandler)
    i.DMA2_Channel3_IRQHandler               0x08000ce4   Section        0  isr.o(i.DMA2_Channel3_IRQHandler)
    i.DMA2_Channel4_IRQHandler               0x08000cfa   Section        0  isr.o(i.DMA2_Channel4_IRQHandler)
    i.DMA2_Channel5_IRQHandler               0x08000d10   Section        0  isr.o(i.DMA2_Channel5_IRQHandler)
    i.DMA_ClearFlag                          0x08000d28   Section        0  hal_dma.o(i.DMA_ClearFlag)
    i.DMA_GetFlagStatus                      0x08000d44   Section        0  hal_dma.o(i.DMA_GetFlagStatus)
    i.DebugMon_Handler                       0x08000d74   Section        0  common.o(i.DebugMon_Handler)
    i.Draw_Circle                            0x08000d78   Section        0  seekfree_18tft.o(i.Draw_Circle)
    i.EXTI0_IRQHandler                       0x08000e16   Section        0  isr.o(i.EXTI0_IRQHandler)
    i.EXTI15_10_IRQHandler                   0x08000e20   Section        0  isr.o(i.EXTI15_10_IRQHandler)
    i.EXTI1_IRQHandler                       0x08000e90   Section        0  isr.o(i.EXTI1_IRQHandler)
    i.EXTI2_IRQHandler                       0x08000e9a   Section        0  isr.o(i.EXTI2_IRQHandler)
    i.EXTI3_IRQHandler                       0x08000ea4   Section        0  isr.o(i.EXTI3_IRQHandler)
    i.EXTI4_IRQHandler                       0x08000eae   Section        0  isr.o(i.EXTI4_IRQHandler)
    i.EXTI9_5_IRQHandler                     0x08000eb8   Section        0  isr.o(i.EXTI9_5_IRQHandler)
    i.EXTI_ClearFlag                         0x08000f0c   Section        0  hal_exti.o(i.EXTI_ClearFlag)
    i.EXTI_GetITStatus                       0x08000f18   Section        0  hal_exti.o(i.EXTI_GetITStatus)
    i.Encoder_Init                           0x08000f38   Section        0  zf_tim.o(i.Encoder_Init)
    i.Encoder_Read                           0x08000f58   Section        0  zf_tim.o(i.Encoder_Read)
    i.FLASH_ClearFlag                        0x08000f90   Section        0  hal_flash.o(i.FLASH_ClearFlag)
    i.FLASH_ErasePage                        0x08000f9c   Section        0  hal_flash.o(i.FLASH_ErasePage)
    i.FLASH_GetStatus                        0x08000fc8   Section        0  hal_flash.o(i.FLASH_GetStatus)
    i.FLASH_Lock                             0x08000ffc   Section        0  hal_flash.o(i.FLASH_Lock)
    i.FLASH_ProgramHalfWord                  0x08001010   Section        0  hal_flash.o(i.FLASH_ProgramHalfWord)
    i.FLASH_ProgramWord                      0x08001030   Section        0  hal_flash.o(i.FLASH_ProgramWord)
    i.FLASH_Unlock                           0x08001054   Section        0  hal_flash.o(i.FLASH_Unlock)
    i.FLASH_WaitForLastOperation             0x0800106c   Section        0  hal_flash.o(i.FLASH_WaitForLastOperation)
    i.GFP_abs                                0x080010a4   Section        0  motor.o(i.GFP_abs)
    i.Get_RC                                 0x080010b4   Section        0  control.o(i.Get_RC)
    i.HardFault_Handler                      0x080011f8   Section        0  common.o(i.HardFault_Handler)
    i.Incremental_PI_A                       0x080011fc   Section        0  control.o(i.Incremental_PI_A)
    i.Incremental_PI_B                       0x08001284   Section        0  control.o(i.Incremental_PI_B)
    i.KEY_Init                               0x0800130c   Section        0  key.o(i.KEY_Init)
    i.KEY_Scan                               0x0800134c   Section        0  key.o(i.KEY_Scan)
    i.Kinematic_Analysis                     0x080013f8   Section        0  control.o(i.Kinematic_Analysis)
    i.LCD_display                            0x08001474   Section        0  ui.o(i.LCD_display)
    i.Limit                                  0x08001500   Section        0  motor.o(i.Limit)
    i.Load                                   0x0800154c   Section        0  motor.o(i.Load)
    i.Loop_1000Hz                            0x080015ec   Section        0  scheduler.o(i.Loop_1000Hz)
    Loop_1000Hz                              0x080015ed   Thumb Code     2  scheduler.o(i.Loop_1000Hz)
    i.Loop_100Hz                             0x080015ee   Section        0  scheduler.o(i.Loop_100Hz)
    Loop_100Hz                               0x080015ef   Thumb Code     2  scheduler.o(i.Loop_100Hz)
    i.Loop_1Hz                               0x080015f0   Section        0  scheduler.o(i.Loop_1Hz)
    Loop_1Hz                                 0x080015f1   Thumb Code     2  scheduler.o(i.Loop_1Hz)
    i.Loop_200Hz                             0x080015f4   Section        0  scheduler.o(i.Loop_200Hz)
    Loop_200Hz                               0x080015f5   Thumb Code   140  scheduler.o(i.Loop_200Hz)
    i.Loop_20Hz                              0x080016a8   Section        0  scheduler.o(i.Loop_20Hz)
    Loop_20Hz                                0x080016a9   Thumb Code     2  scheduler.o(i.Loop_20Hz)
    i.Loop_2Hz                               0x080016aa   Section        0  scheduler.o(i.Loop_2Hz)
    Loop_2Hz                                 0x080016ab   Thumb Code     2  scheduler.o(i.Loop_2Hz)
    i.Loop_333Hz                             0x080016ac   Section        0  scheduler.o(i.Loop_333Hz)
    Loop_333Hz                               0x080016ad   Thumb Code     2  scheduler.o(i.Loop_333Hz)
    i.Loop_500Hz                             0x080016b0   Section        0  scheduler.o(i.Loop_500Hz)
    Loop_500Hz                               0x080016b1   Thumb Code    96  scheduler.o(i.Loop_500Hz)
    i.Loop_50Hz                              0x08001730   Section        0  scheduler.o(i.Loop_50Hz)
    Loop_50Hz                                0x08001731   Thumb Code     8  scheduler.o(i.Loop_50Hz)
    i.Loop_5Hz                               0x08001738   Section        0  scheduler.o(i.Loop_5Hz)
    Loop_5Hz                                 0x08001739   Thumb Code     2  scheduler.o(i.Loop_5Hz)
    i.MahonyAHRSupdateIMU                    0x0800173c   Section        0  imu.o(i.MahonyAHRSupdateIMU)
    i.Meeting_Hande                          0x08001d04   Section        0  ultrasonic.o(i.Meeting_Hande)
    i.MemManage_Handler                      0x08001d4c   Section        0  common.o(i.MemManage_Handler)
    i.Motor_PWM_Init                         0x08001d50   Section        0  motor.o(i.Motor_PWM_Init)
    i.NMI_Handler                            0x08001d94   Section        0  common.o(i.NMI_Handler)
    i.NVIC_Init                              0x08001d98   Section        0  hal_misc.o(i.NVIC_Init)
    i.PendSV_Handler                         0x08001e04   Section        0  common.o(i.PendSV_Handler)
    i.RCC_APB1PeriphClockCmd                 0x08001e08   Section        0  hal_rcc.o(i.RCC_APB1PeriphClockCmd)
    i.SVC_Handler                            0x08001e28   Section        0  common.o(i.SVC_Handler)
    i.Scheduler_Init                         0x08001e2c   Section        0  scheduler.o(i.Scheduler_Init)
    i.Scheduler_Run                          0x08001e88   Section        0  scheduler.o(i.Scheduler_Run)
    i.SetSysClock                            0x08001f1c   Section        0  system_mm32f327x.o(i.SetSysClock)
    SetSysClock                              0x08001f1d   Thumb Code     8  system_mm32f327x.o(i.SetSysClock)
    i.SetSysClockToXX                        0x08001f24   Section        0  system_mm32f327x.o(i.SetSysClockToXX)
    SetSysClockToXX                          0x08001f25   Thumb Code   396  system_mm32f327x.o(i.SetSysClockToXX)
    i.SystemInit                             0x080020d4   Section        0  system_mm32f327x.o(i.SystemInit)
    i.TIM1_UP_IRQHandler                     0x08002138   Section        0  isr.o(i.TIM1_UP_IRQHandler)
    i.TIM2_IRQHandler                        0x0800214c   Section        0  isr.o(i.TIM2_IRQHandler)
    i.TIM3_IRQHandler                        0x08002160   Section        0  isr.o(i.TIM3_IRQHandler)
    i.TIM4_IRQHandler                        0x08002174   Section        0  isr.o(i.TIM4_IRQHandler)
    i.TIM5_IRQHandler                        0x08002188   Section        0  isr.o(i.TIM5_IRQHandler)
    i.TIM6_IRQHandler                        0x0800219c   Section        0  isr.o(i.TIM6_IRQHandler)
    i.TIM7_IRQHandler                        0x080021b8   Section        0  isr.o(i.TIM7_IRQHandler)
    i.TIM8_UP_IRQHandler                     0x080021d8   Section        0  isr.o(i.TIM8_UP_IRQHandler)
    i.TIM_ClearITPendingBit                  0x080021ec   Section        0  hal_tim.o(i.TIM_ClearITPendingBit)
    i.TIM_Cmd                                0x080021f4   Section        0  hal_tim.o(i.TIM_Cmd)
    i.TIM_GetCounter                         0x0800220a   Section        0  hal_tim.o(i.TIM_GetCounter)
    i.TIM_GetITStatus                        0x08002210   Section        0  hal_tim.o(i.TIM_GetITStatus)
    i.TIM_ITConfig                           0x08002226   Section        0  hal_tim.o(i.TIM_ITConfig)
    i.TIM_TimeBaseInit                       0x08002238   Section        0  hal_tim.o(i.TIM_TimeBaseInit)
    i.UART1_IRQHandler                       0x080022b0   Section        0  isr.o(i.UART1_IRQHandler)
    i.UART2_IRQHandler                       0x080022ec   Section        0  isr.o(i.UART2_IRQHandler)
    i.UART3_IRQHandler                       0x08002328   Section        0  isr.o(i.UART3_IRQHandler)
    i.UART4_IRQHandler                       0x08002368   Section        0  isr.o(i.UART4_IRQHandler)
    i.UART5_IRQHandler                       0x080023a4   Section        0  isr.o(i.UART5_IRQHandler)
    i.UART6_IRQHandler                       0x080023d8   Section        0  isr.o(i.UART6_IRQHandler)
    i.UART7_IRQHandler                       0x08002414   Section        0  isr.o(i.UART7_IRQHandler)
    i.UART8_IRQHandler                       0x08002450   Section        0  isr.o(i.UART8_IRQHandler)
    i.UsageFault_Handler                     0x0800248c   Section        0  common.o(i.UsageFault_Handler)
    i.__ARM_fpclassify                       0x08002490   Section        0  fpclassify.o(i.__ARM_fpclassify)
    i.__kernel_poly                          0x080024b8   Section        0  poly.o(i.__kernel_poly)
    i.__mathlib_dbl_infnan                   0x08002562   Section        0  dunder.o(i.__mathlib_dbl_infnan)
    i.__mathlib_dbl_infnan2                  0x08002568   Section        0  dunder.o(i.__mathlib_dbl_infnan2)
    i.__mathlib_dbl_invalid                  0x0800256c   Section        0  dunder.o(i.__mathlib_dbl_invalid)
    i.__mathlib_dbl_underflow                0x08002578   Section        0  dunder.o(i.__mathlib_dbl_underflow)
    i.__scatterload_copy                     0x08002588   Section       14  handlers.o(i.__scatterload_copy)
    i.__scatterload_null                     0x08002596   Section        2  handlers.o(i.__scatterload_null)
    i.__scatterload_zeroinit                 0x08002598   Section       14  handlers.o(i.__scatterload_zeroinit)
    i.__set_errno                            0x080025a8   Section        0  errno.o(i.__set_errno)
    i.adc_convert                            0x080025b4   Section        0  zf_adc.o(i.adc_convert)
    i.adc_init                               0x0800261c   Section        0  zf_adc.o(i.adc_init)
    i.adc_mean_filter                        0x08002720   Section        0  zf_adc.o(i.adc_mean_filter)
    i.adc_pin_init                           0x0800274c   Section        0  zf_adc.o(i.adc_pin_init)
    adc_pin_init                             0x0800274d   Thumb Code    26  zf_adc.o(i.adc_pin_init)
    i.adc_watch                              0x08002768   Section        0  ui.o(i.adc_watch)
    i.afio_init                              0x080029f8   Section        0  zf_gpio.o(i.afio_init)
    i.all_init                               0x08002adc   Section        0  allinit.o(i.all_init)
    i.asin                                   0x08002b2c   Section        0  asin.o(i.asin)
    i.atan                                   0x08002d9c   Section        0  atan.o(i.atan)
    i.atan2                                  0x08002fbc   Section        0  atan2.o(i.atan2)
    i.board_init                             0x08003158   Section        0  board.o(i.board_init)
    i.err_get                                0x08003170   Section        0  math.o(i.err_get)
    i.flash_check                            0x080031fe   Section        0  zf_flash.o(i.flash_check)
    i.flash_erase_page                       0x08003230   Section        0  zf_flash.o(i.flash_erase_page)
    i.flash_page_program                     0x08003278   Section        0  zf_flash.o(i.flash_page_program)
    i.flash_page_read                        0x080032e0   Section        0  zf_flash.o(i.flash_page_read)
    i.fork_stable                            0x08003308   Section        0  elect.o(i.fork_stable)
    i.get_accdata                            0x08003494   Section        0  seekfree_mpu6050.o(i.get_accdata)
    i.get_gyro                               0x080034ec   Section        0  seekfree_mpu6050.o(i.get_gyro)
    i.gpio_get                               0x08003544   Section        0  zf_gpio.o(i.gpio_get)
    i.gpio_init                              0x08003568   Section        0  zf_gpio.o(i.gpio_init)
    i.gpio_set                               0x080036b4   Section        0  zf_gpio.o(i.gpio_set)
    i.invSqrt                                0x080036fc   Section        0  imu.o(i.invSqrt)
    i.lcd_clear                              0x08003748   Section        0  seekfree_18tft.o(i.lcd_clear)
    i.lcd_debug1                             0x08003778   Section        0  ui.o(i.lcd_debug1)
    i.lcd_debug2                             0x080039e4   Section        0  ui.o(i.lcd_debug2)
    i.lcd_debug3                             0x08003c70   Section        0  ui.o(i.lcd_debug3)
    i.lcd_debug4                             0x08003f14   Section        0  ui.o(i.lcd_debug4)
    i.lcd_drawpoint                          0x08004180   Section        0  seekfree_18tft.o(i.lcd_drawpoint)
    i.lcd_init                               0x0800419c   Section        0  seekfree_18tft.o(i.lcd_init)
    i.lcd_set_region                         0x08004470   Section        0  seekfree_18tft.o(i.lcd_set_region)
    lcd_set_region                           0x08004471   Thumb Code    90  seekfree_18tft.o(i.lcd_set_region)
    i.lcd_showchar                           0x080044cc   Section        0  seekfree_18tft.o(i.lcd_showchar)
    i.lcd_showfloat                          0x08004534   Section        0  seekfree_18tft.o(i.lcd_showfloat)
    i.lcd_showint8                           0x080045f4   Section        0  seekfree_18tft.o(i.lcd_showint8)
    i.lcd_showstr                            0x08004686   Section        0  seekfree_18tft.o(i.lcd_showstr)
    i.lcd_watch1                             0x080046b8   Section        0  ui.o(i.lcd_watch1)
    i.lcd_watch2                             0x08004764   Section        0  ui.o(i.lcd_watch2)
    i.lcd_writeData                          0x08004810   Section        0  seekfree_18tft.o(i.lcd_writeData)
    lcd_writeData                            0x08004811   Thumb Code    64  seekfree_18tft.o(i.lcd_writeData)
    i.lcd_writeIndex                         0x08004854   Section        0  seekfree_18tft.o(i.lcd_writeIndex)
    lcd_writeIndex                           0x08004855   Thumb Code    64  seekfree_18tft.o(i.lcd_writeIndex)
    i.lcd_writedata_16bit                    0x08004898   Section        0  seekfree_18tft.o(i.lcd_writedata_16bit)
    lcd_writedata_16bit                      0x08004899   Thumb Code    78  seekfree_18tft.o(i.lcd_writedata_16bit)
    i.main                                   0x080048ec   Section        0  main.o(i.main)
    i.menu1                                  0x080049f4   Section        0  ui.o(i.menu1)
    i.menu2                                  0x08004a54   Section        0  ui.o(i.menu2)
    i.menu3                                  0x08004ab4   Section        0  ui.o(i.menu3)
    i.menu4                                  0x08004b14   Section        0  ui.o(i.menu4)
    i.menu5                                  0x08004b74   Section        0  ui.o(i.menu5)
    i.menu6                                  0x08004bd0   Section        0  ui.o(i.menu6)
    i.menu7                                  0x08004c2c   Section        0  ui.o(i.menu7)
    i.menu8                                  0x08004c88   Section        0  ui.o(i.menu8)
    i.mpu6050_init                           0x08004ce4   Section        0  seekfree_mpu6050.o(i.mpu6050_init)
    i.mpu6050_self1_check                    0x08004d3c   Section        0  seekfree_mpu6050.o(i.mpu6050_self1_check)
    i.my_adcfilter_get                       0x08004d64   Section        0  control.o(i.my_adcfilter_get)
    i.my_timer                               0x08004ed4   Section        0  tim.o(i.my_timer)
    i.myadc_init                             0x08004f20   Section        0  zf_adc.o(i.myadc_init)
    i.mypwm_duty_updata                      0x08004f6c   Section        0  pwm.o(i.mypwm_duty_updata)
    i.mypwm_init                             0x08004fcc   Section        0  pwm.o(i.mypwm_init)
    i.mypwm_pin_init                         0x080051fc   Section        0  pwm.o(i.mypwm_pin_init)
    mypwm_pin_init                           0x080051fd   Thumb Code    20  pwm.o(i.mypwm_pin_init)
    i.nomal                                  0x08005210   Section        0  nomalize.o(i.nomal)
    i.number_conversion_ascii                0x0800525c   Section        0  seekfree_printf.o(i.number_conversion_ascii)
    i.nvic_init                              0x080052e4   Section        0  common.o(i.nvic_init)
    i.org_adc                                0x08005308   Section        0  ui.o(i.org_adc)
    i.printf_reverse_order                   0x080054c4   Section        0  seekfree_printf.o(i.printf_reverse_order)
    i.ramp_stable                            0x080054e8   Section        0  elect.o(i.ramp_stable)
    i.read_ch                                0x08005558   Section        0  seekfree_iic.o(i.read_ch)
    read_ch                                  0x08005559   Thumb Code   148  seekfree_iic.o(i.read_ch)
    i.ring                                   0x080055f0   Section        0  ui.o(i.ring)
    i.ring_stable                            0x08005620   Section        0  elect.o(i.ring_stable)
    i.sccb_waitack                           0x08005934   Section        0  seekfree_iic.o(i.sccb_waitack)
    sccb_waitack                             0x08005935   Thumb Code    98  seekfree_iic.o(i.sccb_waitack)
    i.send_ch                                0x0800599c   Section        0  seekfree_iic.o(i.send_ch)
    send_ch                                  0x0800599d   Thumb Code   108  seekfree_iic.o(i.send_ch)
    i.simiic_delay                           0x08005a0c   Section        0  seekfree_iic.o(i.simiic_delay)
    simiic_delay                             0x08005a0d   Thumb Code    18  seekfree_iic.o(i.simiic_delay)
    i.simiic_init                            0x08005a24   Section        0  seekfree_iic.o(i.simiic_init)
    i.simiic_read_reg                        0x08005a40   Section        0  seekfree_iic.o(i.simiic_read_reg)
    i.simiic_read_regs                       0x08005a8a   Section        0  seekfree_iic.o(i.simiic_read_regs)
    i.simiic_sendack                         0x08005aec   Section        0  seekfree_iic.o(i.simiic_sendack)
    simiic_sendack                           0x08005aed   Thumb Code   102  seekfree_iic.o(i.simiic_sendack)
    i.simiic_start                           0x08005b58   Section        0  seekfree_iic.o(i.simiic_start)
    simiic_start                             0x08005b59   Thumb Code    76  seekfree_iic.o(i.simiic_start)
    i.simiic_stop                            0x08005ba8   Section        0  seekfree_iic.o(i.simiic_stop)
    simiic_stop                              0x08005ba9   Thumb Code    80  seekfree_iic.o(i.simiic_stop)
    i.simiic_write_reg                       0x08005bfc   Section        0  seekfree_iic.o(i.simiic_write_reg)
    i.spi_init                               0x08005c28   Section        0  zf_spi.o(i.spi_init)
    i.spi_mosi                               0x08005de8   Section        0  zf_spi.o(i.spi_mosi)
    i.spi_pin_init                           0x08005e38   Section        0  zf_spi.o(i.spi_pin_init)
    spi_pin_init                             0x08005e39   Thumb Code    88  zf_spi.o(i.spi_pin_init)
    i.sqrt                                   0x08005e90   Section        0  sqrt.o(i.sqrt)
    i.stop_stable                            0x08005edc   Section        0  elect.o(i.stop_stable)
    i.subMenu1_1                             0x08005fb4   Section        0  ui.o(i.subMenu1_1)
    i.subMenu1_2                             0x08006000   Section        0  ui.o(i.subMenu1_2)
    i.subMenu1_3                             0x0800604c   Section        0  ui.o(i.subMenu1_3)
    i.subMenu1_4                             0x08006098   Section        0  ui.o(i.subMenu1_4)
    i.subMenu2_1                             0x08006184   Section        0  ui.o(i.subMenu2_1)
    i.subMenu2_2                             0x080061d4   Section        0  ui.o(i.subMenu2_2)
    i.subMenu2_3                             0x08006220   Section        0  ui.o(i.subMenu2_3)
    i.subMenu2_4                             0x0800626c   Section        0  ui.o(i.subMenu2_4)
    i.subMenu3_1                             0x0800636c   Section        0  ui.o(i.subMenu3_1)
    i.subMenu3_2                             0x080063b8   Section        0  ui.o(i.subMenu3_2)
    i.subMenu3_3                             0x08006404   Section        0  ui.o(i.subMenu3_3)
    i.subMenu3_4                             0x08006450   Section        0  ui.o(i.subMenu3_4)
    i.subMenu4_1                             0x08006558   Section        0  ui.o(i.subMenu4_1)
    i.subMenu4_2                             0x080065ac   Section        0  ui.o(i.subMenu4_2)
    i.subMenu4_3                             0x08006600   Section        0  ui.o(i.subMenu4_3)
    i.subMenu4_4                             0x08006874   Section        0  ui.o(i.subMenu4_4)
    i.subMenu5_1                             0x080068d0   Section        0  ui.o(i.subMenu5_1)
    i.subMenu5_2                             0x08006920   Section        0  ui.o(i.subMenu5_2)
    i.subMenu5_3                             0x08006970   Section        0  ui.o(i.subMenu5_3)
    i.subMenu5_4                             0x080069c0   Section        0  ui.o(i.subMenu5_4)
    i.subMenu6_1                             0x08006a24   Section        0  ui.o(i.subMenu6_1)
    i.subMenu6_2                             0x08006a8c   Section        0  ui.o(i.subMenu6_2)
    i.subMenu6_3                             0x08006af4   Section        0  ui.o(i.subMenu6_3)
    i.subMenu6_4                             0x08006b5c   Section        0  ui.o(i.subMenu6_4)
    i.subMenu7_1                             0x08006bc4   Section        0  ui.o(i.subMenu7_1)
    i.subMenu7_2                             0x08006c2c   Section        0  ui.o(i.subMenu7_2)
    i.subMenu7_3                             0x08006c94   Section        0  ui.o(i.subMenu7_3)
    i.subMenu7_4                             0x08006cfc   Section        0  ui.o(i.subMenu7_4)
    i.subMenu8_1                             0x08006d64   Section        0  ui.o(i.subMenu8_1)
    i.subMenu8_2                             0x08006dcc   Section        0  ui.o(i.subMenu8_2)
    i.subMenu8_3                             0x08006e34   Section        0  ui.o(i.subMenu8_3)
    i.subMenu8_4                             0x08006e9c   Section        0  ui.o(i.subMenu8_4)
    i.systick_delay                          0x08006f04   Section        0  zf_systick.o(i.systick_delay)
    i.systick_delay_ms                       0x08006f2c   Section        0  zf_systick.o(i.systick_delay_ms)
    i.tim_encoder_get_count                  0x08006f54   Section        0  zf_tim.o(i.tim_encoder_get_count)
    i.tim_encoder_init                       0x08006f88   Section        0  zf_tim.o(i.tim_encoder_init)
    i.tim_encoder_pin_init                   0x08007078   Section        0  zf_tim.o(i.tim_encoder_pin_init)
    tim_encoder_pin_init                     0x08007079   Thumb Code    20  zf_tim.o(i.tim_encoder_pin_init)
    i.tim_encoder_rst                        0x0800708c   Section        0  zf_tim.o(i.tim_encoder_rst)
    i.uart_handler                           0x080070b0   Section        0  ultrasonic.o(i.uart_handler)
    i.uart_init                              0x0800711c   Section        0  zf_uart.o(i.uart_init)
    i.uart_pin_init                          0x080072b0   Section        0  zf_uart.o(i.uart_pin_init)
    uart_pin_init                            0x080072b1   Thumb Code    36  zf_uart.o(i.uart_pin_init)
    i.uart_putchar                           0x080072d4   Section        0  zf_uart.o(i.uart_putchar)
    i.uart_query                             0x080072f4   Section        0  zf_uart.o(i.uart_query)
    i.uart_rx_irq                            0x0800731c   Section        0  zf_uart.o(i.uart_rx_irq)
    i.ultrasonic_init                        0x08007368   Section        0  ultrasonic.o(i.ultrasonic_init)
    i.zf_sprintf                             0x08007390   Section        0  seekfree_printf.o(i.zf_sprintf)
    .constdata                               0x08007674   Section      320  ui.o(.constdata)
    .constdata                               0x080077b4   Section     7048  seekfree_font.o(.constdata)
    .constdata                               0x08009340   Section       80  asin.o(.constdata)
    pS                                       0x08009340   Data          48  asin.o(.constdata)
    qS                                       0x08009370   Data          32  asin.o(.constdata)
    .constdata                               0x08009390   Section      152  atan.o(.constdata)
    atanhi                                   0x08009390   Data          32  atan.o(.constdata)
    atanlo                                   0x080093b0   Data          32  atan.o(.constdata)
    aTodd                                    0x080093d0   Data          40  atan.o(.constdata)
    aTeven                                   0x080093f8   Data          48  atan.o(.constdata)
    .constdata                               0x08009428   Section        8  qnan.o(.constdata)
    .data                                    0x20000000   Section      152  allinit.o(.data)
    .data                                    0x20000098   Section       76  control.o(.data)
    Bias                                     0x200000b8   Data           4  control.o(.data)
    Pwm                                      0x200000bc   Data           4  control.o(.data)
    Last_bias                                0x200000c0   Data           4  control.o(.data)
    Bias                                     0x200000c4   Data           4  control.o(.data)
    Pwm                                      0x200000c8   Data           4  control.o(.data)
    Last_bias                                0x200000cc   Data           4  control.o(.data)
    Last_Bias                                0x200000d0   Data           4  control.o(.data)
    exp_turn                                 0x200000d4   Data           4  control.o(.data)
    Bias                                     0x200000d8   Data           4  control.o(.data)
    real_Bais                                0x200000dc   Data           4  control.o(.data)
    real_last_bias                           0x200000e0   Data           4  control.o(.data)
    .data                                    0x200000e4   Section        4  motor.o(.data)
    i                                        0x200000e4   Data           4  motor.o(.data)
    .data                                    0x200000e8   Section      224  scheduler.o(.data)
    sched_tasks                              0x20000100   Data         200  scheduler.o(.data)
    .data                                    0x200001c8   Section        1  key.o(.data)
    key_up                                   0x200001c8   Data           1  key.o(.data)
    .data                                    0x200001cc   Section       56  ui.o(.data)
    v_kp                                     0x200001d0   Data           4  ui.o(.data)
    v_ki                                     0x200001d4   Data           4  ui.o(.data)
    vel                                      0x200001d8   Data           4  ui.o(.data)
    t_kp                                     0x200001dc   Data           4  ui.o(.data)
    t_kd                                     0x200001e0   Data           4  ui.o(.data)
    e_kp                                     0x200001e4   Data           4  ui.o(.data)
    gyro_kp                                  0x200001e8   Data           4  ui.o(.data)
    real_kp                                  0x200001ec   Data           4  ui.o(.data)
    real_kd                                  0x200001f0   Data           4  ui.o(.data)
    v_ring                                   0x200001f4   Data           4  ui.o(.data)
    v_forkin                                 0x200001f8   Data           4  ui.o(.data)
    v_forkget                                0x200001fc   Data           4  ui.o(.data)
    clc                                      0x20000200   Data           4  ui.o(.data)
    .data                                    0x20000204   Section       36  imu.o(.data)
    .data                                    0x20000228   Section       24  elect.o(.data)
    a_encoder                                0x2000022c   Data           4  elect.o(.data)
    A_R                                      0x20000230   Data           4  elect.o(.data)
    A_L                                      0x20000234   Data           4  elect.o(.data)
    a_l                                      0x20000238   Data           4  elect.o(.data)
    integral_encoder                         0x2000023c   Data           4  elect.o(.data)
    .data                                    0x20000240   Section       12  ultrasonic.o(.data)
    num                                      0x20000248   Data           4  ultrasonic.o(.data)
    .data                                    0x2000024c   Section       20  system_mm32f327x.o(.data)
    .data                                    0x20000260   Section       15  zf_adc.o(.data)
    .data                                    0x2000026f   Section        2  zf_flash.o(.data)
    gFlashStatus                             0x2000026f   Data           1  zf_flash.o(.data)
    gFlashStatus                             0x20000270   Data           1  zf_flash.o(.data)
    .data                                    0x20000274   Section       32  zf_gpio.o(.data)
    .data                                    0x20000294   Section       12  zf_spi.o(.data)
    .data                                    0x200002a0   Section       32  zf_tim.o(.data)
    .data                                    0x200002c0   Section       40  zf_uart.o(.data)
    .data                                    0x200002e8   Section       12  seekfree_iic.o(.data)
    simiic_delay_time                        0x200002f2   Data           2  seekfree_iic.o(.data)
    .data                                    0x200002f4   Section       12  seekfree_mpu6050.o(.data)
    .data                                    0x20000300   Section        4  errno.o(.data)
    _errno                                   0x20000300   Data           4  errno.o(.data)
    .bss                                     0x20000304   Section      192  control.o(.bss)
    .bss                                     0x200003c4   Section       48  ui.o(.bss)
    STACK                                    0x200003f8   Section     1024  startup_mm32f327x_keil.o(STACK)

    Global Symbols

    Symbol Name                              Value     Ov Type        Size  Object(Section)

    BuildAttributes$$THM_ISAv4$P$D$K$B$S$PE$A:L22UL41UL21$X:L11$S22US41US21$IEEE1$IW$USESV6$~STKCKD$USESV7$~SHL$OTIME$ROPI$IEEEX$EBA8$MICROLIB$REQ8$PRES8$EABIv2 0x00000000   Number         0  anon$$obj.o ABSOLUTE
    __ARM_use_no_argv                        0x00000000   Number         0  main.o ABSOLUTE
    __arm_fini_                               - Undefined Weak Reference
    __cpp_initialize__aeabi_                  - Undefined Weak Reference
    __cxa_finalize                            - Undefined Weak Reference
    _clock_init                               - Undefined Weak Reference
    _microlib_exit                            - Undefined Weak Reference
    __Vectors_Size                           0x00000190   Number         0  startup_mm32f327x_keil.o ABSOLUTE
    __Vectors                                0x08000000   Data           4  startup_mm32f327x_keil.o(RESET)
    __Vectors_End                            0x08000190   Data           0  startup_mm32f327x_keil.o(RESET)
    __main                                   0x08000191   Thumb Code     0  entry.o(.ARM.Collect$$$$00000000)
    _main_stk                                0x08000191   Thumb Code     0  entry2.o(.ARM.Collect$$$$00000001)
    _main_scatterload                        0x08000195   Thumb Code     0  entry5.o(.ARM.Collect$$$$00000004)
    __main_after_scatterload                 0x08000199   Thumb Code     0  entry5.o(.ARM.Collect$$$$00000004)
    _main_clock                              0x08000199   Thumb Code     0  entry7b.o(.ARM.Collect$$$$00000008)
    _main_cpp_init                           0x08000199   Thumb Code     0  entry8b.o(.ARM.Collect$$$$0000000A)
    _main_init                               0x08000199   Thumb Code     0  entry9a.o(.ARM.Collect$$$$0000000B)
    __rt_lib_shutdown_fini                   0x080001a1   Thumb Code     0  entry12b.o(.ARM.Collect$$$$0000000E)
    __rt_final_cpp                           0x080001a5   Thumb Code     0  entry10a.o(.ARM.Collect$$$$0000000F)
    __rt_final_exit                          0x080001a5   Thumb Code     0  entry11a.o(.ARM.Collect$$$$00000011)
    Reset_Handler                            0x080001a9   Thumb Code     8  startup_mm32f327x_keil.o(.text)
    SysTick_Handler                          0x080001c1   Thumb Code     2  startup_mm32f327x_keil.o(.text)
    ADC1_2_IRQHandler                        0x080001c3   Thumb Code     0  startup_mm32f327x_keil.o(.text)
    ADC3_IRQHandler                          0x080001c3   Thumb Code     0  startup_mm32f327x_keil.o(.text)
    CAN1_RX_IRQHandler                       0x080001c3   Thumb Code     0  startup_mm32f327x_keil.o(.text)
    COMP1_2_IRQHandler                       0x080001c3   Thumb Code     0  startup_mm32f327x_keil.o(.text)
    DMA1_Channel2_IRQHandler                 0x080001c3   Thumb Code     0  startup_mm32f327x_keil.o(.text)
    DMA2_Channel2_IRQHandler                 0x080001c3   Thumb Code     0  startup_mm32f327x_keil.o(.text)
    ETH_IRQHandler                           0x080001c3   Thumb Code     0  startup_mm32f327x_keil.o(.text)
    FLASH_IRQHandler                         0x080001c3   Thumb Code     0  startup_mm32f327x_keil.o(.text)
    FlashCache_IRQHandler                    0x080001c3   Thumb Code     0  startup_mm32f327x_keil.o(.text)
    I2C1_IRQHandler                          0x080001c3   Thumb Code     0  startup_mm32f327x_keil.o(.text)
    I2C2_IRQHandler                          0x080001c3   Thumb Code     0  startup_mm32f327x_keil.o(.text)
    OTG_FS_IRQHandler                        0x080001c3   Thumb Code     0  startup_mm32f327x_keil.o(.text)
    OTG_FS_WKUP_IRQHandler                   0x080001c3   Thumb Code     0  startup_mm32f327x_keil.o(.text)
    PVD_IRQHandler                           0x080001c3   Thumb Code     0  startup_mm32f327x_keil.o(.text)
    RCC_CRS_IRQHandler                       0x080001c3   Thumb Code     0  startup_mm32f327x_keil.o(.text)
    RTCAlarm_IRQHandler                      0x080001c3   Thumb Code     0  startup_mm32f327x_keil.o(.text)
    RTC_IRQHandler                           0x080001c3   Thumb Code     0  startup_mm32f327x_keil.o(.text)
    SDIO_IRQHandler                          0x080001c3   Thumb Code     0  startup_mm32f327x_keil.o(.text)
    SPI1_IRQHandler                          0x080001c3   Thumb Code     0  startup_mm32f327x_keil.o(.text)
    SPI2_IRQHandler                          0x080001c3   Thumb Code     0  startup_mm32f327x_keil.o(.text)
    SPI3_IRQHandler                          0x080001c3   Thumb Code     0  startup_mm32f327x_keil.o(.text)
    TAMPER_IRQHandler                        0x080001c3   Thumb Code     0  startup_mm32f327x_keil.o(.text)
    TIM1_BRK_IRQHandler                      0x080001c3   Thumb Code     0  startup_mm32f327x_keil.o(.text)
    TIM1_CC_IRQHandler                       0x080001c3   Thumb Code     0  startup_mm32f327x_keil.o(.text)
    TIM1_TRG_COM_IRQHandler                  0x080001c3   Thumb Code     0  startup_mm32f327x_keil.o(.text)
    TIM8_BRK_IRQHandler                      0x080001c3   Thumb Code     0  startup_mm32f327x_keil.o(.text)
    TIM8_CC_IRQHandler                       0x080001c3   Thumb Code     0  startup_mm32f327x_keil.o(.text)
    TIM8_TRG_COM_IRQHandler                  0x080001c3   Thumb Code     0  startup_mm32f327x_keil.o(.text)
    WWDG_IRQHandler                          0x080001c3   Thumb Code     0  startup_mm32f327x_keil.o(.text)
    __aeabi_uldivmod                         0x080001cd   Thumb Code    98  uldiv.o(.text)
    __aeabi_memcpy                           0x0800022f   Thumb Code    36  memcpya.o(.text)
    __aeabi_memcpy4                          0x0800022f   Thumb Code     0  memcpya.o(.text)
    __aeabi_memcpy8                          0x0800022f   Thumb Code     0  memcpya.o(.text)
    __aeabi_fadd                             0x08000253   Thumb Code   164  fadd.o(.text)
    __aeabi_fsub                             0x080002f7   Thumb Code     6  fadd.o(.text)
    __aeabi_frsub                            0x080002fd   Thumb Code     6  fadd.o(.text)
    __aeabi_fmul                             0x08000303   Thumb Code   100  fmul.o(.text)
    __aeabi_fdiv                             0x08000367   Thumb Code   124  fdiv.o(.text)
    __aeabi_dadd                             0x080003e3   Thumb Code   322  dadd.o(.text)
    __aeabi_dsub                             0x08000525   Thumb Code     6  dadd.o(.text)
    __aeabi_drsub                            0x0800052b   Thumb Code     6  dadd.o(.text)
    __aeabi_dmul                             0x08000531   Thumb Code   228  dmul.o(.text)
    __aeabi_i2f                              0x08000615   Thumb Code    18  fflti.o(.text)
    __aeabi_ui2f                             0x08000627   Thumb Code    10  ffltui.o(.text)
    __aeabi_i2d                              0x08000631   Thumb Code    34  dflti.o(.text)
    __aeabi_ui2d                             0x08000653   Thumb Code    26  dfltui.o(.text)
    __aeabi_f2iz                             0x0800066d   Thumb Code    50  ffixi.o(.text)
    __aeabi_f2uiz                            0x0800069f   Thumb Code    40  ffixui.o(.text)
    __aeabi_d2iz                             0x080006c7   Thumb Code    62  dfixi.o(.text)
    __aeabi_f2d                              0x08000705   Thumb Code    38  f2d.o(.text)
    __aeabi_cdcmpeq                          0x0800072d   Thumb Code     0  cdcmple.o(.text)
    __aeabi_cdcmple                          0x0800072d   Thumb Code    48  cdcmple.o(.text)
    __aeabi_cdrcmple                         0x0800075d   Thumb Code    48  cdrcmple.o(.text)
    __aeabi_d2f                              0x0800078d   Thumb Code    56  d2f.o(.text)
    __aeabi_cfcmpeq                          0x080007c5   Thumb Code     0  cfcmple.o(.text)
    __aeabi_cfcmple                          0x080007c5   Thumb Code    20  cfcmple.o(.text)
    __aeabi_cfrcmple                         0x080007d9   Thumb Code    20  cfrcmple.o(.text)
    __aeabi_llsl                             0x080007ed   Thumb Code    30  llshl.o(.text)
    _ll_shift_l                              0x080007ed   Thumb Code     0  llshl.o(.text)
    __aeabi_llsr                             0x0800080b   Thumb Code    32  llushr.o(.text)
    _ll_ushift_r                             0x0800080b   Thumb Code     0  llushr.o(.text)
    __aeabi_lasr                             0x0800082b   Thumb Code    36  llsshr.o(.text)
    _ll_sshift_r                             0x0800082b   Thumb Code     0  llsshr.o(.text)
    __I$use$fp                               0x0800084f   Thumb Code     0  iusefp.o(.text)
    _float_round                             0x0800084f   Thumb Code    18  fepilogue.o(.text)
    _float_epilogue                          0x08000861   Thumb Code    92  fepilogue.o(.text)
    _double_round                            0x080008bd   Thumb Code    30  depilogue.o(.text)
    _double_epilogue                         0x080008db   Thumb Code   156  depilogue.o(.text)
    __aeabi_ddiv                             0x08000977   Thumb Code   222  ddiv.o(.text)
    __ARM_scalbn                             0x08000a55   Thumb Code    46  dscalb.o(.text)
    scalbn                                   0x08000a55   Thumb Code     0  dscalb.o(.text)
    __scatterload                            0x08000a85   Thumb Code    28  init.o(.text)
    __scatterload_rt2                        0x08000a85   Thumb Code     0  init.o(.text)
    _dsqrt                                   0x08000aa9   Thumb Code   162  dsqrt.o(.text)
    __decompress                             0x08000b4b   Thumb Code     0  __dczerorl2.o(.text)
    __decompress1                            0x08000b4b   Thumb Code    86  __dczerorl2.o(.text)
    AutoCalPllFactor                         0x08000ba1   Thumb Code   102  system_mm32f327x.o(i.AutoCalPllFactor)
    BusFault_Handler                         0x08000c07   Thumb Code     4  common.o(i.BusFault_Handler)
    DMA1_Channel1_IRQHandler                 0x08000c4f   Thumb Code    20  isr.o(i.DMA1_Channel1_IRQHandler)
    DMA1_Channel3_IRQHandler                 0x08000c63   Thumb Code    22  isr.o(i.DMA1_Channel3_IRQHandler)
    DMA1_Channel4_IRQHandler                 0x08000c79   Thumb Code    22  isr.o(i.DMA1_Channel4_IRQHandler)
    DMA1_Channel5_IRQHandler                 0x08000c8f   Thumb Code    22  isr.o(i.DMA1_Channel5_IRQHandler)
    DMA1_Channel6_IRQHandler                 0x08000ca5   Thumb Code    22  isr.o(i.DMA1_Channel6_IRQHandler)
    DMA1_Channel7_IRQHandler                 0x08000cbb   Thumb Code    22  isr.o(i.DMA1_Channel7_IRQHandler)
    DMA2_Channel1_IRQHandler                 0x08000cd1   Thumb Code    20  isr.o(i.DMA2_Channel1_IRQHandler)
    DMA2_Channel3_IRQHandler                 0x08000ce5   Thumb Code    22  isr.o(i.DMA2_Channel3_IRQHandler)
    DMA2_Channel4_IRQHandler                 0x08000cfb   Thumb Code    22  isr.o(i.DMA2_Channel4_IRQHandler)
    DMA2_Channel5_IRQHandler                 0x08000d11   Thumb Code    22  isr.o(i.DMA2_Channel5_IRQHandler)
    DMA_ClearFlag                            0x08000d29   Thumb Code    20  hal_dma.o(i.DMA_ClearFlag)
    DMA_GetFlagStatus                        0x08000d45   Thumb Code    40  hal_dma.o(i.DMA_GetFlagStatus)
    DebugMon_Handler                         0x08000d75   Thumb Code     4  common.o(i.DebugMon_Handler)
    Draw_Circle                              0x08000d79   Thumb Code   158  seekfree_18tft.o(i.Draw_Circle)
    EXTI0_IRQHandler                         0x08000e17   Thumb Code    10  isr.o(i.EXTI0_IRQHandler)
    EXTI15_10_IRQHandler                     0x08000e21   Thumb Code   112  isr.o(i.EXTI15_10_IRQHandler)
    EXTI1_IRQHandler                         0x08000e91   Thumb Code    10  isr.o(i.EXTI1_IRQHandler)
    EXTI2_IRQHandler                         0x08000e9b   Thumb Code    10  isr.o(i.EXTI2_IRQHandler)
    EXTI3_IRQHandler                         0x08000ea5   Thumb Code    10  isr.o(i.EXTI3_IRQHandler)
    EXTI4_IRQHandler                         0x08000eaf   Thumb Code    10  isr.o(i.EXTI4_IRQHandler)
    EXTI9_5_IRQHandler                       0x08000eb9   Thumb Code    82  isr.o(i.EXTI9_5_IRQHandler)
    EXTI_ClearFlag                           0x08000f0d   Thumb Code     6  hal_exti.o(i.EXTI_ClearFlag)
    EXTI_GetITStatus                         0x08000f19   Thumb Code    28  hal_exti.o(i.EXTI_GetITStatus)
    Encoder_Init                             0x08000f39   Thumb Code    32  zf_tim.o(i.Encoder_Init)
    Encoder_Read                             0x08000f59   Thumb Code    56  zf_tim.o(i.Encoder_Read)
    FLASH_ClearFlag                          0x08000f91   Thumb Code     6  hal_flash.o(i.FLASH_ClearFlag)
    FLASH_ErasePage                          0x08000f9d   Thumb Code    38  hal_flash.o(i.FLASH_ErasePage)
    FLASH_GetStatus                          0x08000fc9   Thumb Code    46  hal_flash.o(i.FLASH_GetStatus)
    FLASH_Lock                               0x08000ffd   Thumb Code    14  hal_flash.o(i.FLASH_Lock)
    FLASH_ProgramHalfWord                    0x08001011   Thumb Code    28  hal_flash.o(i.FLASH_ProgramHalfWord)
    FLASH_ProgramWord                        0x08001031   Thumb Code    34  hal_flash.o(i.FLASH_ProgramWord)
    FLASH_Unlock                             0x08001055   Thumb Code    12  hal_flash.o(i.FLASH_Unlock)
    FLASH_WaitForLastOperation               0x0800106d   Thumb Code    52  hal_flash.o(i.FLASH_WaitForLastOperation)
    GFP_abs                                  0x080010a5   Thumb Code    16  motor.o(i.GFP_abs)
    Get_RC                                   0x080010b5   Thumb Code   242  control.o(i.Get_RC)
    HardFault_Handler                        0x080011f9   Thumb Code     4  common.o(i.HardFault_Handler)
    Incremental_PI_A                         0x080011fd   Thumb Code   114  control.o(i.Incremental_PI_A)
    Incremental_PI_B                         0x08001285   Thumb Code   114  control.o(i.Incremental_PI_B)
    KEY_Init                                 0x0800130d   Thumb Code    64  key.o(i.KEY_Init)
    KEY_Scan                                 0x0800134d   Thumb Code   158  key.o(i.KEY_Scan)
    Kinematic_Analysis                       0x080013f9   Thumb Code   102  control.o(i.Kinematic_Analysis)
    LCD_display                              0x08001475   Thumb Code   126  ui.o(i.LCD_display)
    Limit                                    0x08001501   Thumb Code    66  motor.o(i.Limit)
    Load                                     0x0800154d   Thumb Code   148  motor.o(i.Load)
    MahonyAHRSupdateIMU                      0x0800173d   Thumb Code  1458  imu.o(i.MahonyAHRSupdateIMU)
    Meeting_Hande                            0x08001d05   Thumb Code    54  ultrasonic.o(i.Meeting_Hande)
    MemManage_Handler                        0x08001d4d   Thumb Code     4  common.o(i.MemManage_Handler)
    Motor_PWM_Init                           0x08001d51   Thumb Code    68  motor.o(i.Motor_PWM_Init)
    NMI_Handler                              0x08001d95   Thumb Code     4  common.o(i.NMI_Handler)
    NVIC_Init                                0x08001d99   Thumb Code    96  hal_misc.o(i.NVIC_Init)
    PendSV_Handler                           0x08001e05   Thumb Code     4  common.o(i.PendSV_Handler)
    RCC_APB1PeriphClockCmd                   0x08001e09   Thumb Code    26  hal_rcc.o(i.RCC_APB1PeriphClockCmd)
    SVC_Handler                              0x08001e29   Thumb Code     4  common.o(i.SVC_Handler)
    Scheduler_Init                           0x08001e2d   Thumb Code    82  scheduler.o(i.Scheduler_Init)
    Scheduler_Run                            0x08001e89   Thumb Code   136  scheduler.o(i.Scheduler_Run)
    SystemInit                               0x080020d5   Thumb Code    82  system_mm32f327x.o(i.SystemInit)
    TIM1_UP_IRQHandler                       0x08002139   Thumb Code    14  isr.o(i.TIM1_UP_IRQHandler)
    TIM2_IRQHandler                          0x0800214d   Thumb Code    18  isr.o(i.TIM2_IRQHandler)
    TIM3_IRQHandler                          0x08002161   Thumb Code    14  isr.o(i.TIM3_IRQHandler)
    TIM4_IRQHandler                          0x08002175   Thumb Code    14  isr.o(i.TIM4_IRQHandler)
    TIM5_IRQHandler                          0x08002189   Thumb Code    14  isr.o(i.TIM5_IRQHandler)
    TIM6_IRQHandler                          0x0800219d   Thumb Code    22  isr.o(i.TIM6_IRQHandler)
    TIM7_IRQHandler                          0x080021b9   Thumb Code    26  isr.o(i.TIM7_IRQHandler)
    TIM8_UP_IRQHandler                       0x080021d9   Thumb Code    14  isr.o(i.TIM8_UP_IRQHandler)
    TIM_ClearITPendingBit                    0x080021ed   Thumb Code     8  hal_tim.o(i.TIM_ClearITPendingBit)
    TIM_Cmd                                  0x080021f5   Thumb Code    22  hal_tim.o(i.TIM_Cmd)
    TIM_GetCounter                           0x0800220b   Thumb Code     6  hal_tim.o(i.TIM_GetCounter)
    TIM_GetITStatus                          0x08002211   Thumb Code    22  hal_tim.o(i.TIM_GetITStatus)
    TIM_ITConfig                             0x08002227   Thumb Code    18  hal_tim.o(i.TIM_ITConfig)
    TIM_TimeBaseInit                         0x08002239   Thumb Code    98  hal_tim.o(i.TIM_TimeBaseInit)
    UART1_IRQHandler                         0x080022b1   Thumb Code    54  isr.o(i.UART1_IRQHandler)
    UART2_IRQHandler                         0x080022ed   Thumb Code    54  isr.o(i.UART2_IRQHandler)
    UART3_IRQHandler                         0x08002329   Thumb Code    60  isr.o(i.UART3_IRQHandler)
    UART4_IRQHandler                         0x08002369   Thumb Code    54  isr.o(i.UART4_IRQHandler)
    UART5_IRQHandler                         0x080023a5   Thumb Code    46  isr.o(i.UART5_IRQHandler)
    UART6_IRQHandler                         0x080023d9   Thumb Code    54  isr.o(i.UART6_IRQHandler)
    UART7_IRQHandler                         0x08002415   Thumb Code    54  isr.o(i.UART7_IRQHandler)
    UART8_IRQHandler                         0x08002451   Thumb Code    54  isr.o(i.UART8_IRQHandler)
    UsageFault_Handler                       0x0800248d   Thumb Code     4  common.o(i.UsageFault_Handler)
    __ARM_fpclassify                         0x08002491   Thumb Code    40  fpclassify.o(i.__ARM_fpclassify)
    __kernel_poly                            0x080024b9   Thumb Code   170  poly.o(i.__kernel_poly)
    __mathlib_dbl_infnan                     0x08002563   Thumb Code     6  dunder.o(i.__mathlib_dbl_infnan)
    __mathlib_dbl_infnan2                    0x08002569   Thumb Code     4  dunder.o(i.__mathlib_dbl_infnan2)
    __mathlib_dbl_invalid                    0x0800256d   Thumb Code    12  dunder.o(i.__mathlib_dbl_invalid)
    __mathlib_dbl_underflow                  0x08002579   Thumb Code    10  dunder.o(i.__mathlib_dbl_underflow)
    __scatterload_copy                       0x08002589   Thumb Code    14  handlers.o(i.__scatterload_copy)
    __scatterload_null                       0x08002597   Thumb Code     2  handlers.o(i.__scatterload_null)
    __scatterload_zeroinit                   0x08002599   Thumb Code    14  handlers.o(i.__scatterload_zeroinit)
    __set_errno                              0x080025a9   Thumb Code     6  errno.o(i.__set_errno)
    adc_convert                              0x080025b5   Thumb Code    96  zf_adc.o(i.adc_convert)
    adc_init                                 0x0800261d   Thumb Code   246  zf_adc.o(i.adc_init)
    adc_mean_filter                          0x08002721   Thumb Code    44  zf_adc.o(i.adc_mean_filter)
    adc_watch                                0x08002769   Thumb Code   524  ui.o(i.adc_watch)
    afio_init                                0x080029f9   Thumb Code   218  zf_gpio.o(i.afio_init)
    all_init                                 0x08002add   Thumb Code    72  allinit.o(i.all_init)
    asin                                     0x08002b2d   Thumb Code   572  asin.o(i.asin)
    atan                                     0x08002d9d   Thumb Code   474  atan.o(i.atan)
    atan2                                    0x08002fbd   Thumb Code   374  atan2.o(i.atan2)
    board_init                               0x08003159   Thumb Code    24  board.o(i.board_init)
    err_get                                  0x08003171   Thumb Code   142  math.o(i.err_get)
    flash_check                              0x080031ff   Thumb Code    48  zf_flash.o(i.flash_check)
    flash_erase_page                         0x08003231   Thumb Code    66  zf_flash.o(i.flash_erase_page)
    flash_page_program                       0x08003279   Thumb Code    98  zf_flash.o(i.flash_page_program)
    flash_page_read                          0x080032e1   Thumb Code    38  zf_flash.o(i.flash_page_read)
    fork_stable                              0x08003309   Thumb Code   328  elect.o(i.fork_stable)
    get_accdata                              0x08003495   Thumb Code    74  seekfree_mpu6050.o(i.get_accdata)
    get_gyro                                 0x080034ed   Thumb Code    74  seekfree_mpu6050.o(i.get_gyro)
    gpio_get                                 0x08003545   Thumb Code    32  zf_gpio.o(i.gpio_get)
    gpio_init                                0x08003569   Thumb Code   322  zf_gpio.o(i.gpio_init)
    gpio_set                                 0x080036b5   Thumb Code    68  zf_gpio.o(i.gpio_set)
    invSqrt                                  0x080036fd   Thumb Code    72  imu.o(i.invSqrt)
    lcd_clear                                0x08003749   Thumb Code    48  seekfree_18tft.o(i.lcd_clear)
    lcd_debug1                               0x08003779   Thumb Code   550  ui.o(i.lcd_debug1)
    lcd_debug2                               0x080039e5   Thumb Code   576  ui.o(i.lcd_debug2)
    lcd_debug3                               0x08003c71   Thumb Code   598  ui.o(i.lcd_debug3)
    lcd_debug4                               0x08003f15   Thumb Code   544  ui.o(i.lcd_debug4)
    lcd_drawpoint                            0x08004181   Thumb Code    28  seekfree_18tft.o(i.lcd_drawpoint)
    lcd_init                                 0x0800419d   Thumb Code   714  seekfree_18tft.o(i.lcd_init)
    lcd_showchar                             0x080044cd   Thumb Code    98  seekfree_18tft.o(i.lcd_showchar)
    lcd_showfloat                            0x08004535   Thumb Code   186  seekfree_18tft.o(i.lcd_showfloat)
    lcd_showint8                             0x080045f5   Thumb Code   146  seekfree_18tft.o(i.lcd_showint8)
    lcd_showstr                              0x08004687   Thumb Code    50  seekfree_18tft.o(i.lcd_showstr)
    lcd_watch1                               0x080046b9   Thumb Code   158  ui.o(i.lcd_watch1)
    lcd_watch2                               0x08004765   Thumb Code   158  ui.o(i.lcd_watch2)
    main                                     0x080048ed   Thumb Code   232  main.o(i.main)
    menu1                                    0x080049f5   Thumb Code    58  ui.o(i.menu1)
    menu2                                    0x08004a55   Thumb Code    58  ui.o(i.menu2)
    menu3                                    0x08004ab5   Thumb Code    58  ui.o(i.menu3)
    menu4                                    0x08004b15   Thumb Code    58  ui.o(i.menu4)
    menu5                                    0x08004b75   Thumb Code    58  ui.o(i.menu5)
    menu6                                    0x08004bd1   Thumb Code    58  ui.o(i.menu6)
    menu7                                    0x08004c2d   Thumb Code    58  ui.o(i.menu7)
    menu8                                    0x08004c89   Thumb Code    58  ui.o(i.menu8)
    mpu6050_init                             0x08004ce5   Thumb Code    88  seekfree_mpu6050.o(i.mpu6050_init)
    mpu6050_self1_check                      0x08004d3d   Thumb Code    40  seekfree_mpu6050.o(i.mpu6050_self1_check)
    my_adcfilter_get                         0x08004d65   Thumb Code   340  control.o(i.my_adcfilter_get)
    my_timer                                 0x08004ed5   Thumb Code    72  tim.o(i.my_timer)
    myadc_init                               0x08004f21   Thumb Code    76  zf_adc.o(i.myadc_init)
    mypwm_duty_updata                        0x08004f6d   Thumb Code    92  pwm.o(i.mypwm_duty_updata)
    mypwm_init                               0x08004fcd   Thumb Code   550  pwm.o(i.mypwm_init)
    nomal                                    0x08005211   Thumb Code    70  nomalize.o(i.nomal)
    number_conversion_ascii                  0x0800525d   Thumb Code   136  seekfree_printf.o(i.number_conversion_ascii)
    nvic_init                                0x080052e5   Thumb Code    36  common.o(i.nvic_init)
    org_adc                                  0x08005309   Thumb Code   392  ui.o(i.org_adc)
    printf_reverse_order                     0x080054c5   Thumb Code    34  seekfree_printf.o(i.printf_reverse_order)
    ramp_stable                              0x080054e9   Thumb Code    86  elect.o(i.ramp_stable)
    ring                                     0x080055f1   Thumb Code    46  ui.o(i.ring)
    ring_stable                              0x08005621   Thumb Code   680  elect.o(i.ring_stable)
    simiic_init                              0x08005a25   Thumb Code    28  seekfree_iic.o(i.simiic_init)
    simiic_read_reg                          0x08005a41   Thumb Code    74  seekfree_iic.o(i.simiic_read_reg)
    simiic_read_regs                         0x08005a8b   Thumb Code    98  seekfree_iic.o(i.simiic_read_regs)
    simiic_write_reg                         0x08005bfd   Thumb Code    42  seekfree_iic.o(i.simiic_write_reg)
    spi_init                                 0x08005c29   Thumb Code   434  zf_spi.o(i.spi_init)
    spi_mosi                                 0x08005de9   Thumb Code    76  zf_spi.o(i.spi_mosi)
    sqrt                                     0x08005e91   Thumb Code    76  sqrt.o(i.sqrt)
    stop_stable                              0x08005edd   Thumb Code   168  elect.o(i.stop_stable)
    subMenu1_1                               0x08005fb5   Thumb Code    60  ui.o(i.subMenu1_1)
    subMenu1_2                               0x08006001   Thumb Code    60  ui.o(i.subMenu1_2)
    subMenu1_3                               0x0800604d   Thumb Code    60  ui.o(i.subMenu1_3)
    subMenu1_4                               0x08006099   Thumb Code   188  ui.o(i.subMenu1_4)
    subMenu2_1                               0x08006185   Thumb Code    58  ui.o(i.subMenu2_1)
    subMenu2_2                               0x080061d5   Thumb Code    60  ui.o(i.subMenu2_2)
    subMenu2_3                               0x08006221   Thumb Code    60  ui.o(i.subMenu2_3)
    subMenu2_4                               0x0800626d   Thumb Code   198  ui.o(i.subMenu2_4)
    subMenu3_1                               0x0800636d   Thumb Code    60  ui.o(i.subMenu3_1)
    subMenu3_2                               0x080063b9   Thumb Code    60  ui.o(i.subMenu3_2)
    subMenu3_3                               0x08006405   Thumb Code    60  ui.o(i.subMenu3_3)
    subMenu3_4                               0x08006451   Thumb Code   206  ui.o(i.subMenu3_4)
    subMenu4_1                               0x08006559   Thumb Code    52  ui.o(i.subMenu4_1)
    subMenu4_2                               0x080065ad   Thumb Code    52  ui.o(i.subMenu4_2)
    subMenu4_3                               0x08006601   Thumb Code   464  ui.o(i.subMenu4_3)
    subMenu4_4                               0x08006875   Thumb Code    58  ui.o(i.subMenu4_4)
    subMenu5_1                               0x080068d1   Thumb Code    58  ui.o(i.subMenu5_1)
    subMenu5_2                               0x08006921   Thumb Code    58  ui.o(i.subMenu5_2)
    subMenu5_3                               0x08006971   Thumb Code    58  ui.o(i.subMenu5_3)
    subMenu5_4                               0x080069c1   Thumb Code    58  ui.o(i.subMenu5_4)
    subMenu6_1                               0x08006a25   Thumb Code    58  ui.o(i.subMenu6_1)
    subMenu6_2                               0x08006a8d   Thumb Code    58  ui.o(i.subMenu6_2)
    subMenu6_3                               0x08006af5   Thumb Code    58  ui.o(i.subMenu6_3)
    subMenu6_4                               0x08006b5d   Thumb Code    58  ui.o(i.subMenu6_4)
    subMenu7_1                               0x08006bc5   Thumb Code    58  ui.o(i.subMenu7_1)
    subMenu7_2                               0x08006c2d   Thumb Code    58  ui.o(i.subMenu7_2)
    subMenu7_3                               0x08006c95   Thumb Code    58  ui.o(i.subMenu7_3)
    subMenu7_4                               0x08006cfd   Thumb Code    58  ui.o(i.subMenu7_4)
    subMenu8_1                               0x08006d65   Thumb Code    58  ui.o(i.subMenu8_1)
    subMenu8_2                               0x08006dcd   Thumb Code    58  ui.o(i.subMenu8_2)
    subMenu8_3                               0x08006e35   Thumb Code    58  ui.o(i.subMenu8_3)
    subMenu8_4                               0x08006e9d   Thumb Code    58  ui.o(i.subMenu8_4)
    systick_delay                            0x08006f05   Thumb Code    38  zf_systick.o(i.systick_delay)
    systick_delay_ms                         0x08006f2d   Thumb Code    34  zf_systick.o(i.systick_delay_ms)
    tim_encoder_get_count                    0x08006f55   Thumb Code    46  zf_tim.o(i.tim_encoder_get_count)
    tim_encoder_init                         0x08006f89   Thumb Code   232  zf_tim.o(i.tim_encoder_init)
    tim_encoder_rst                          0x0800708d   Thumb Code    30  zf_tim.o(i.tim_encoder_rst)
    uart_handler                             0x080070b1   Thumb Code    86  ultrasonic.o(i.uart_handler)
    uart_init                                0x0800711d   Thumb Code   392  zf_uart.o(i.uart_init)
    uart_putchar                             0x080072d5   Thumb Code    28  zf_uart.o(i.uart_putchar)
    uart_query                               0x080072f5   Thumb Code    34  zf_uart.o(i.uart_query)
    uart_rx_irq                              0x0800731d   Thumb Code    66  zf_uart.o(i.uart_rx_irq)
    ultrasonic_init                          0x08007369   Thumb Code    40  ultrasonic.o(i.ultrasonic_init)
    zf_sprintf                               0x08007391   Thumb Code   736  seekfree_printf.o(i.zf_sprintf)
    Key_table                                0x08007674   Data         320  ui.o(.constdata)
    tft_ascii                                0x080077b4   Data        1520  seekfree_font.o(.constdata)
    gImage_qq                                0x08007da4   Data        3200  seekfree_font.o(.constdata)
    chinese_test                             0x08008a24   Data         128  seekfree_font.o(.constdata)
    oled_6x8                                 0x08008aa4   Data         552  seekfree_font.o(.constdata)
    oled_8x16                                0x08008ccc   Data        1520  seekfree_font.o(.constdata)
    oled_16x16_chinese                       0x080092bc   Data         128  seekfree_font.o(.constdata)
    __mathlib_zero                           0x08009428   Data           8  qnan.o(.constdata)
    Region$$Table$$Base                      0x08009430   Number         0  anon$$obj.o(Region$$Table)
    Region$$Table$$Limit                     0x08009450   Number         0  anon$$obj.o(Region$$Table)
    Motor_A                                  0x20000000   Data           4  allinit.o(.data)
    Motor_B                                  0x20000004   Data           4  allinit.o(.data)
    Servo                                    0x20000008   Data           4  allinit.o(.data)
    Target_A                                 0x2000000c   Data           4  allinit.o(.data)
    Target_B                                 0x20000010   Data           4  allinit.o(.data)
    flag_knock                               0x20000014   Data           2  allinit.o(.data)
    flag_lcd                                 0x20000016   Data           2  allinit.o(.data)
    Velocity_KP                              0x20000018   Data           4  allinit.o(.data)
    Velocity_KI                              0x2000001c   Data           4  allinit.o(.data)
    Gyro_kp                                  0x20000020   Data           4  allinit.o(.data)
    Real_kp                                  0x20000024   Data           4  allinit.o(.data)
    Real_kd                                  0x20000028   Data           4  allinit.o(.data)
    Turn_KP                                  0x2000002c   Data           4  allinit.o(.data)
    Turn_KD                                  0x20000030   Data           4  allinit.o(.data)
    exp_turn_KP                              0x20000034   Data           4  allinit.o(.data)
    Encoder_Left                             0x20000038   Data           4  allinit.o(.data)
    Encoder_Right                            0x2000003c   Data           4  allinit.o(.data)
    V_forkget                                0x20000040   Data           4  allinit.o(.data)
    V_forkin                                 0x20000044   Data           4  allinit.o(.data)
    V_ring                                   0x20000048   Data           4  allinit.o(.data)
    Velocity                                 0x2000004c   Data           4  allinit.o(.data)
    Velocity_Set                             0x20000050   Data           4  allinit.o(.data)
    Turn                                     0x20000054   Data           4  allinit.o(.data)
    Velocity_MAX                             0x20000058   Data           4  allinit.o(.data)
    PWM_MAX                                  0x2000005c   Data           4  allinit.o(.data)
    PWM_MIN                                  0x20000060   Data           4  allinit.o(.data)
    ADC_LL                                   0x20000064   Data           4  allinit.o(.data)
    ADC_L                                    0x20000068   Data           4  allinit.o(.data)
    ADC_LM                                   0x2000006c   Data           4  allinit.o(.data)
    ADC_RM                                   0x20000070   Data           4  allinit.o(.data)
    ADC_R                                    0x20000074   Data           4  allinit.o(.data)
    ADC_RR                                   0x20000078   Data           4  allinit.o(.data)
    Pitch                                    0x2000007c   Data           4  allinit.o(.data)
    Yaw                                      0x20000080   Data           4  allinit.o(.data)
    Roll                                     0x20000084   Data           4  allinit.o(.data)
    TURN_A                                   0x20000088   Data           4  allinit.o(.data)
    TURN_B                                   0x2000008c   Data           4  allinit.o(.data)
    buf                                      0x20000090   Data           8  allinit.o(.data)
    Flag_Target                              0x20000098   Data           1  control.o(.data)
    Voltage_Temp                             0x2000009c   Data           4  control.o(.data)
    Voltage_Count                            0x200000a0   Data           4  control.o(.data)
    Voltage_All                              0x200000a4   Data           4  control.o(.data)
    sum                                      0x200000a8   Data           4  control.o(.data)
    err                                      0x200000ac   Data           4  control.o(.data)
    sum_kd                                   0x200000b0   Data           4  control.o(.data)
    u                                        0x200000b4   Data           4  control.o(.data)
    a                                        0x200000e8   Data           4  scheduler.o(.data)
    systime_ms                               0x200000f0   Data           8  scheduler.o(.data)
    beep                                     0x200000f8   Data           4  scheduler.o(.data)
    wave_get                                 0x200000fc   Data           4  scheduler.o(.data)
    nowIndex                                 0x200001cc   Data           1  ui.o(.data)
    twoKp                                    0x20000204   Data           4  imu.o(.data)
    twoKi                                    0x20000208   Data           4  imu.o(.data)
    q0                                       0x2000020c   Data           4  imu.o(.data)
    q1                                       0x20000210   Data           4  imu.o(.data)
    q2                                       0x20000214   Data           4  imu.o(.data)
    q3                                       0x20000218   Data           4  imu.o(.data)
    integralFBx                              0x2000021c   Data           4  imu.o(.data)
    integralFBy                              0x20000220   Data           4  imu.o(.data)
    integralFBz                              0x20000224   Data           4  imu.o(.data)
    ring_state                               0x20000228   Data           1  elect.o(.data)
    fork_state                               0x20000229   Data           1  elect.o(.data)
    stop_state                               0x2000022a   Data           1  elect.o(.data)
    ramp_state                               0x2000022b   Data           1  elect.o(.data)
    ranging_counter                          0x20000240   Data           2  ultrasonic.o(.data)
    ranging_flage                            0x20000242   Data           1  ultrasonic.o(.data)
    uart_data                                0x20000243   Data           1  ultrasonic.o(.data)
    dat                                      0x20000244   Data           3  ultrasonic.o(.data)
    num                                      0x20000247   Data           1  ultrasonic.o(.data)
    SystemCoreClock                          0x2000024c   Data           4  system_mm32f327x.o(.data)
    AHBPrescTable                            0x20000250   Data          16  system_mm32f327x.o(.data)
    adc_index                                0x20000260   Data          12  zf_adc.o(.data)
    adc_resolution                           0x2000026c   Data           3  zf_adc.o(.data)
    gpio_group                               0x20000274   Data          32  zf_gpio.o(.data)
    spi_index                                0x20000294   Data          12  zf_spi.o(.data)
    tim_index                                0x200002a0   Data          32  zf_tim.o(.data)
    uart_index                               0x200002c0   Data          32  zf_uart.o(.data)
    uart_irq                                 0x200002e0   Data           8  zf_uart.o(.data)
    IIC_ad_main                              0x200002e8   Data           1  seekfree_iic.o(.data)
    IIC_ad_sub                               0x200002e9   Data           1  seekfree_iic.o(.data)
    IIC_buf                                  0x200002ec   Data           4  seekfree_iic.o(.data)
    IIC_num                                  0x200002f0   Data           1  seekfree_iic.o(.data)
    mpu_gyro_x                               0x200002f4   Data           2  seekfree_mpu6050.o(.data)
    mpu_gyro_y                               0x200002f6   Data           2  seekfree_mpu6050.o(.data)
    mpu_gyro_z                               0x200002f8   Data           2  seekfree_mpu6050.o(.data)
    mpu_acc_x                                0x200002fa   Data           2  seekfree_mpu6050.o(.data)
    mpu_acc_y                                0x200002fc   Data           2  seekfree_mpu6050.o(.data)
    mpu_acc_z                                0x200002fe   Data           2  seekfree_mpu6050.o(.data)
    adc                                      0x20000304   Data         192  control.o(.bss)
    pid                                      0x200003c4   Data          48  ui.o(.bss)
    __initial_sp                             0x200007f8   Data           0  startup_mm32f327x_keil.o(STACK)



==============================================================================

Memory Map of the image

  Image Entry point : 0x08000191

  Load Region LR_IROM1 (Base: 0x08000000, Size: 0x00009754, Max: 0x00080000, ABSOLUTE, COMPRESSED[0x0000953c])

    Execution Region ER_IROM1 (Exec base: 0x08000000, Load base: 0x08000000, Size: 0x00009450, Max: 0x00080000, ABSOLUTE)

    Exec Addr    Load Addr    Size         Type   Attr      Idx    E Section Name        Object

    0x08000000   0x08000000   0x00000190   Data   RO         1736    RESET               startup_mm32f327x_keil.o
    0x08000190   0x08000190   0x00000000   Code   RO         7007  * .ARM.Collect$$$$00000000  mc_w.l(entry.o)
    0x08000190   0x08000190   0x00000004   Code   RO         7089    .ARM.Collect$$$$00000001  mc_w.l(entry2.o)
    0x08000194   0x08000194   0x00000004   Code   RO         7092    .ARM.Collect$$$$00000004  mc_w.l(entry5.o)
    0x08000198   0x08000198   0x00000000   Code   RO         7094    .ARM.Collect$$$$00000008  mc_w.l(entry7b.o)
    0x08000198   0x08000198   0x00000000   Code   RO         7096    .ARM.Collect$$$$0000000A  mc_w.l(entry8b.o)
    0x08000198   0x08000198   0x00000008   Code   RO         7097    .ARM.Collect$$$$0000000B  mc_w.l(entry9a.o)
    0x080001a0   0x080001a0   0x00000004   Code   RO         7104    .ARM.Collect$$$$0000000E  mc_w.l(entry12b.o)
    0x080001a4   0x080001a4   0x00000000   Code   RO         7099    .ARM.Collect$$$$0000000F  mc_w.l(entry10a.o)
    0x080001a4   0x080001a4   0x00000000   Code   RO         7101    .ARM.Collect$$$$00000011  mc_w.l(entry11a.o)
    0x080001a4   0x080001a4   0x00000004   Code   RO         7090    .ARM.Collect$$$$00002712  mc_w.l(entry2.o)
    0x080001a8   0x080001a8   0x00000024   Code   RO         1737    .text               startup_mm32f327x_keil.o
    0x080001cc   0x080001cc   0x00000062   Code   RO         7010    .text               mc_w.l(uldiv.o)
    0x0800022e   0x0800022e   0x00000024   Code   RO         7012    .text               mc_w.l(memcpya.o)
    0x08000252   0x08000252   0x000000b0   Code   RO         7016    .text               mf_w.l(fadd.o)
    0x08000302   0x08000302   0x00000064   Code   RO         7018    .text               mf_w.l(fmul.o)
    0x08000366   0x08000366   0x0000007c   Code   RO         7020    .text               mf_w.l(fdiv.o)
    0x080003e2   0x080003e2   0x0000014e   Code   RO         7022    .text               mf_w.l(dadd.o)
    0x08000530   0x08000530   0x000000e4   Code   RO         7024    .text               mf_w.l(dmul.o)
    0x08000614   0x08000614   0x00000012   Code   RO         7026    .text               mf_w.l(fflti.o)
    0x08000626   0x08000626   0x0000000a   Code   RO         7028    .text               mf_w.l(ffltui.o)
    0x08000630   0x08000630   0x00000022   Code   RO         7030    .text               mf_w.l(dflti.o)
    0x08000652   0x08000652   0x0000001a   Code   RO         7032    .text               mf_w.l(dfltui.o)
    0x0800066c   0x0800066c   0x00000032   Code   RO         7034    .text               mf_w.l(ffixi.o)
    0x0800069e   0x0800069e   0x00000028   Code   RO         7036    .text               mf_w.l(ffixui.o)
    0x080006c6   0x080006c6   0x0000003e   Code   RO         7038    .text               mf_w.l(dfixi.o)
    0x08000704   0x08000704   0x00000026   Code   RO         7040    .text               mf_w.l(f2d.o)
    0x0800072a   0x0800072a   0x00000002   PAD
    0x0800072c   0x0800072c   0x00000030   Code   RO         7042    .text               mf_w.l(cdcmple.o)
    0x0800075c   0x0800075c   0x00000030   Code   RO         7044    .text               mf_w.l(cdrcmple.o)
    0x0800078c   0x0800078c   0x00000038   Code   RO         7046    .text               mf_w.l(d2f.o)
    0x080007c4   0x080007c4   0x00000014   Code   RO         7048    .text               mf_w.l(cfcmple.o)
    0x080007d8   0x080007d8   0x00000014   Code   RO         7050    .text               mf_w.l(cfrcmple.o)
    0x080007ec   0x080007ec   0x0000001e   Code   RO         7105    .text               mc_w.l(llshl.o)
    0x0800080a   0x0800080a   0x00000020   Code   RO         7107    .text               mc_w.l(llushr.o)
    0x0800082a   0x0800082a   0x00000024   Code   RO         7109    .text               mc_w.l(llsshr.o)
    0x0800084e   0x0800084e   0x00000000   Code   RO         7118    .text               mc_w.l(iusefp.o)
    0x0800084e   0x0800084e   0x0000006e   Code   RO         7119    .text               mf_w.l(fepilogue.o)
    0x080008bc   0x080008bc   0x000000ba   Code   RO         7121    .text               mf_w.l(depilogue.o)
    0x08000976   0x08000976   0x000000de   Code   RO         7123    .text               mf_w.l(ddiv.o)
    0x08000a54   0x08000a54   0x0000002e   Code   RO         7125    .text               mf_w.l(dscalb.o)
    0x08000a82   0x08000a82   0x00000002   PAD
    0x08000a84   0x08000a84   0x00000024   Code   RO         7127    .text               mc_w.l(init.o)
    0x08000aa8   0x08000aa8   0x000000a2   Code   RO         7129    .text               mf_w.l(dsqrt.o)
    0x08000b4a   0x08000b4a   0x00000056   Code   RO         7139    .text               mc_w.l(__dczerorl2.o)
    0x08000ba0   0x08000ba0   0x00000066   Code   RO         1689    i.AutoCalPllFactor  system_mm32f327x.o
    0x08000c06   0x08000c06   0x00000004   Code   RO         1508    i.BusFault_Handler  common.o
    0x08000c0a   0x08000c0a   0x00000044   Code   RO         1690    i.DELAY_xUs         system_mm32f327x.o
    0x08000c4e   0x08000c4e   0x00000014   Code   RO            4    i.DMA1_Channel1_IRQHandler  isr.o
    0x08000c62   0x08000c62   0x00000016   Code   RO            6    i.DMA1_Channel3_IRQHandler  isr.o
    0x08000c78   0x08000c78   0x00000016   Code   RO            7    i.DMA1_Channel4_IRQHandler  isr.o
    0x08000c8e   0x08000c8e   0x00000016   Code   RO            8    i.DMA1_Channel5_IRQHandler  isr.o
    0x08000ca4   0x08000ca4   0x00000016   Code   RO            9    i.DMA1_Channel6_IRQHandler  isr.o
    0x08000cba   0x08000cba   0x00000016   Code   RO           10    i.DMA1_Channel7_IRQHandler  isr.o
    0x08000cd0   0x08000cd0   0x00000014   Code   RO           11    i.DMA2_Channel1_IRQHandler  isr.o
    0x08000ce4   0x08000ce4   0x00000016   Code   RO           13    i.DMA2_Channel3_IRQHandler  isr.o
    0x08000cfa   0x08000cfa   0x00000016   Code   RO           14    i.DMA2_Channel4_IRQHandler  isr.o
    0x08000d10   0x08000d10   0x00000016   Code   RO           15    i.DMA2_Channel5_IRQHandler  isr.o
    0x08000d26   0x08000d26   0x00000002   PAD
    0x08000d28   0x08000d28   0x0000001c   Code   RO         3651    i.DMA_ClearFlag     hal_dma.o
    0x08000d44   0x08000d44   0x00000030   Code   RO         3656    i.DMA_GetFlagStatus  hal_dma.o
    0x08000d74   0x08000d74   0x00000004   Code   RO         1509    i.DebugMon_Handler  common.o
    0x08000d78   0x08000d78   0x0000009e   Code   RO         2375    i.Draw_Circle       seekfree_18tft.o
    0x08000e16   0x08000e16   0x0000000a   Code   RO           16    i.EXTI0_IRQHandler  isr.o
    0x08000e20   0x08000e20   0x00000070   Code   RO           17    i.EXTI15_10_IRQHandler  isr.o
    0x08000e90   0x08000e90   0x0000000a   Code   RO           18    i.EXTI1_IRQHandler  isr.o
    0x08000e9a   0x08000e9a   0x0000000a   Code   RO           19    i.EXTI2_IRQHandler  isr.o
    0x08000ea4   0x08000ea4   0x0000000a   Code   RO           20    i.EXTI3_IRQHandler  isr.o
    0x08000eae   0x08000eae   0x0000000a   Code   RO           21    i.EXTI4_IRQHandler  isr.o
    0x08000eb8   0x08000eb8   0x00000052   Code   RO           22    i.EXTI9_5_IRQHandler  isr.o
    0x08000f0a   0x08000f0a   0x00000002   PAD
    0x08000f0c   0x08000f0c   0x0000000c   Code   RO         4264    i.EXTI_ClearFlag    hal_exti.o
    0x08000f18   0x08000f18   0x00000020   Code   RO         4269    i.EXTI_GetITStatus  hal_exti.o
    0x08000f38   0x08000f38   0x00000020   Code   RO         2196    i.Encoder_Init      zf_tim.o
    0x08000f58   0x08000f58   0x00000038   Code   RO         2197    i.Encoder_Read      zf_tim.o
    0x08000f90   0x08000f90   0x0000000c   Code   RO         4351    i.FLASH_ClearFlag   hal_flash.o
    0x08000f9c   0x08000f9c   0x0000002c   Code   RO         4355    i.FLASH_ErasePage   hal_flash.o
    0x08000fc8   0x08000fc8   0x00000034   Code   RO         4358    i.FLASH_GetStatus   hal_flash.o
    0x08000ffc   0x08000ffc   0x00000014   Code   RO         4363    i.FLASH_Lock        hal_flash.o
    0x08001010   0x08001010   0x00000020   Code   RO         4366    i.FLASH_ProgramHalfWord  hal_flash.o
    0x08001030   0x08001030   0x00000022   Code   RO         4370    i.FLASH_ProgramWord  hal_flash.o
    0x08001052   0x08001052   0x00000002   PAD
    0x08001054   0x08001054   0x00000018   Code   RO         4372    i.FLASH_Unlock      hal_flash.o
    0x0800106c   0x0800106c   0x00000038   Code   RO         4374    i.FLASH_WaitForLastOperation  hal_flash.o
    0x080010a4   0x080010a4   0x00000010   Code   RO          679    i.GFP_abs           motor.o
    0x080010b4   0x080010b4   0x00000144   Code   RO          585    i.Get_RC            control.o
    0x080011f8   0x080011f8   0x00000004   Code   RO         1510    i.HardFault_Handler  common.o
    0x080011fc   0x080011fc   0x00000088   Code   RO          586    i.Incremental_PI_A  control.o
    0x08001284   0x08001284   0x00000088   Code   RO          587    i.Incremental_PI_B  control.o
    0x0800130c   0x0800130c   0x00000040   Code   RO          988    i.KEY_Init          key.o
    0x0800134c   0x0800134c   0x000000ac   Code   RO          989    i.KEY_Scan          key.o
    0x080013f8   0x080013f8   0x0000007c   Code   RO          588    i.Kinematic_Analysis  control.o
    0x08001474   0x08001474   0x0000008c   Code   RO         1023    i.LCD_display       ui.o
    0x08001500   0x08001500   0x0000004c   Code   RO          680    i.Limit             motor.o
    0x0800154c   0x0800154c   0x000000a0   Code   RO          681    i.Load              motor.o
    0x080015ec   0x080015ec   0x00000002   Code   RO          892    i.Loop_1000Hz       scheduler.o
    0x080015ee   0x080015ee   0x00000002   Code   RO          893    i.Loop_100Hz        scheduler.o
    0x080015f0   0x080015f0   0x00000002   Code   RO          894    i.Loop_1Hz          scheduler.o
    0x080015f2   0x080015f2   0x00000002   PAD
    0x080015f4   0x080015f4   0x000000b4   Code   RO          895    i.Loop_200Hz        scheduler.o
    0x080016a8   0x080016a8   0x00000002   Code   RO          896    i.Loop_20Hz         scheduler.o
    0x080016aa   0x080016aa   0x00000002   Code   RO          897    i.Loop_2Hz          scheduler.o
    0x080016ac   0x080016ac   0x00000002   Code   RO          898    i.Loop_333Hz        scheduler.o
    0x080016ae   0x080016ae   0x00000002   PAD
    0x080016b0   0x080016b0   0x00000080   Code   RO          899    i.Loop_500Hz        scheduler.o
    0x08001730   0x08001730   0x00000008   Code   RO          900    i.Loop_50Hz         scheduler.o
    0x08001738   0x08001738   0x00000002   Code   RO          901    i.Loop_5Hz          scheduler.o
    0x0800173a   0x0800173a   0x00000002   PAD
    0x0800173c   0x0800173c   0x000005c8   Code   RO         1350    i.MahonyAHRSupdateIMU  imu.o
    0x08001d04   0x08001d04   0x00000048   Code   RO         1427    i.Meeting_Hande     ultrasonic.o
    0x08001d4c   0x08001d4c   0x00000004   Code   RO         1511    i.MemManage_Handler  common.o
    0x08001d50   0x08001d50   0x00000044   Code   RO          682    i.Motor_PWM_Init    motor.o
    0x08001d94   0x08001d94   0x00000004   Code   RO         1512    i.NMI_Handler       common.o
    0x08001d98   0x08001d98   0x0000006c   Code   RO         4984    i.NVIC_Init         hal_misc.o
    0x08001e04   0x08001e04   0x00000004   Code   RO         1513    i.PendSV_Handler    common.o
    0x08001e08   0x08001e08   0x00000020   Code   RO         5140    i.RCC_APB1PeriphClockCmd  hal_rcc.o
    0x08001e28   0x08001e28   0x00000004   Code   RO         1514    i.SVC_Handler       common.o
    0x08001e2c   0x08001e2c   0x0000005c   Code   RO          902    i.Scheduler_Init    scheduler.o
    0x08001e88   0x08001e88   0x00000094   Code   RO          903    i.Scheduler_Run     scheduler.o
    0x08001f1c   0x08001f1c   0x00000008   Code   RO         1691    i.SetSysClock       system_mm32f327x.o
    0x08001f24   0x08001f24   0x000001b0   Code   RO         1692    i.SetSysClockToXX   system_mm32f327x.o
    0x080020d4   0x080020d4   0x00000064   Code   RO         1693    i.SystemInit        system_mm32f327x.o
    0x08002138   0x08002138   0x00000014   Code   RO           23    i.TIM1_UP_IRQHandler  isr.o
    0x0800214c   0x0800214c   0x00000012   Code   RO           24    i.TIM2_IRQHandler   isr.o
    0x0800215e   0x0800215e   0x00000002   PAD
    0x08002160   0x08002160   0x00000014   Code   RO           25    i.TIM3_IRQHandler   isr.o
    0x08002174   0x08002174   0x00000014   Code   RO           26    i.TIM4_IRQHandler   isr.o
    0x08002188   0x08002188   0x00000014   Code   RO           27    i.TIM5_IRQHandler   isr.o
    0x0800219c   0x0800219c   0x0000001c   Code   RO           28    i.TIM6_IRQHandler   isr.o
    0x080021b8   0x080021b8   0x00000020   Code   RO           29    i.TIM7_IRQHandler   isr.o
    0x080021d8   0x080021d8   0x00000014   Code   RO           30    i.TIM8_UP_IRQHandler  isr.o
    0x080021ec   0x080021ec   0x00000008   Code   RO         5987    i.TIM_ClearITPendingBit  hal_tim.o
    0x080021f4   0x080021f4   0x00000016   Code   RO         5993    i.TIM_Cmd           hal_tim.o
    0x0800220a   0x0800220a   0x00000006   Code   RO         6014    i.TIM_GetCounter    hal_tim.o
    0x08002210   0x08002210   0x00000016   Code   RO         6016    i.TIM_GetITStatus   hal_tim.o
    0x08002226   0x08002226   0x00000012   Code   RO         6020    i.TIM_ITConfig      hal_tim.o
    0x08002238   0x08002238   0x00000078   Code   RO         6081    i.TIM_TimeBaseInit  hal_tim.o
    0x080022b0   0x080022b0   0x0000003c   Code   RO           31    i.UART1_IRQHandler  isr.o
    0x080022ec   0x080022ec   0x0000003c   Code   RO           32    i.UART2_IRQHandler  isr.o
    0x08002328   0x08002328   0x00000040   Code   RO           33    i.UART3_IRQHandler  isr.o
    0x08002368   0x08002368   0x0000003c   Code   RO           34    i.UART4_IRQHandler  isr.o
    0x080023a4   0x080023a4   0x00000034   Code   RO           35    i.UART5_IRQHandler  isr.o
    0x080023d8   0x080023d8   0x0000003c   Code   RO           36    i.UART6_IRQHandler  isr.o
    0x08002414   0x08002414   0x0000003c   Code   RO           37    i.UART7_IRQHandler  isr.o
    0x08002450   0x08002450   0x0000003c   Code   RO           38    i.UART8_IRQHandler  isr.o
    0x0800248c   0x0800248c   0x00000004   Code   RO         1515    i.UsageFault_Handler  common.o
    0x08002490   0x08002490   0x00000028   Code   RO         7076    i.__ARM_fpclassify  m_ws.l(fpclassify.o)
    0x080024b8   0x080024b8   0x000000aa   Code   RO         7078    i.__kernel_poly     m_ws.l(poly.o)
    0x08002562   0x08002562   0x00000006   Code   RO         7063    i.__mathlib_dbl_infnan  m_ws.l(dunder.o)
    0x08002568   0x08002568   0x00000004   Code   RO         7064    i.__mathlib_dbl_infnan2  m_ws.l(dunder.o)
    0x0800256c   0x0800256c   0x0000000c   Code   RO         7065    i.__mathlib_dbl_invalid  m_ws.l(dunder.o)
    0x08002578   0x08002578   0x00000010   Code   RO         7068    i.__mathlib_dbl_underflow  m_ws.l(dunder.o)
    0x08002588   0x08002588   0x0000000e   Code   RO         7133    i.__scatterload_copy  mc_w.l(handlers.o)
    0x08002596   0x08002596   0x00000002   Code   RO         7134    i.__scatterload_null  mc_w.l(handlers.o)
    0x08002598   0x08002598   0x0000000e   Code   RO         7135    i.__scatterload_zeroinit  mc_w.l(handlers.o)
    0x080025a6   0x080025a6   0x00000002   PAD
    0x080025a8   0x080025a8   0x0000000c   Code   RO         7113    i.__set_errno       mc_w.l(errno.o)
    0x080025b4   0x080025b4   0x00000068   Code   RO         1744    i.adc_convert       zf_adc.o
    0x0800261c   0x0800261c   0x00000104   Code   RO         1745    i.adc_init          zf_adc.o
    0x08002720   0x08002720   0x0000002c   Code   RO         1746    i.adc_mean_filter   zf_adc.o
    0x0800274c   0x0800274c   0x0000001a   Code   RO         1747    i.adc_pin_init      zf_adc.o
    0x08002766   0x08002766   0x00000002   PAD
    0x08002768   0x08002768   0x00000290   Code   RO         1024    i.adc_watch         ui.o
    0x080029f8   0x080029f8   0x000000e4   Code   RO         1948    i.afio_init         zf_gpio.o
    0x08002adc   0x08002adc   0x00000050   Code   RO          550    i.all_init          allinit.o
    0x08002b2c   0x08002b2c   0x00000270   Code   RO         6990    i.asin              m_ws.l(asin.o)
    0x08002d9c   0x08002d9c   0x00000220   Code   RO         7053    i.atan              m_ws.l(atan.o)
    0x08002fbc   0x08002fbc   0x0000019c   Code   RO         7000    i.atan2             m_ws.l(atan2.o)
    0x08003158   0x08003158   0x00000018   Code   RO         1473    i.board_init        board.o
    0x08003170   0x08003170   0x0000008e   Code   RO          651    i.err_get           math.o
    0x080031fe   0x080031fe   0x00000030   Code   RO         1881    i.flash_check       zf_flash.o
    0x0800322e   0x0800322e   0x00000002   PAD
    0x08003230   0x08003230   0x00000048   Code   RO         1882    i.flash_erase_page  zf_flash.o
    0x08003278   0x08003278   0x00000068   Code   RO         1883    i.flash_page_program  zf_flash.o
    0x080032e0   0x080032e0   0x00000026   Code   RO         1884    i.flash_page_read   zf_flash.o
    0x08003306   0x08003306   0x00000002   PAD
    0x08003308   0x08003308   0x0000018c   Code   RO         1374    i.fork_stable       elect.o
    0x08003494   0x08003494   0x00000058   Code   RO         2736    i.get_accdata       seekfree_mpu6050.o
    0x080034ec   0x080034ec   0x00000058   Code   RO         2737    i.get_gyro          seekfree_mpu6050.o
    0x08003544   0x08003544   0x00000024   Code   RO         1950    i.gpio_get          zf_gpio.o
    0x08003568   0x08003568   0x0000014c   Code   RO         1951    i.gpio_init         zf_gpio.o
    0x080036b4   0x080036b4   0x00000048   Code   RO         1952    i.gpio_set          zf_gpio.o
    0x080036fc   0x080036fc   0x0000004c   Code   RO         1351    i.invSqrt           imu.o
    0x08003748   0x08003748   0x00000030   Code   RO         2376    i.lcd_clear         seekfree_18tft.o
    0x08003778   0x08003778   0x0000026c   Code   RO         1025    i.lcd_debug1        ui.o
    0x080039e4   0x080039e4   0x0000028c   Code   RO         1026    i.lcd_debug2        ui.o
    0x08003c70   0x08003c70   0x000002a4   Code   RO         1027    i.lcd_debug3        ui.o
    0x08003f14   0x08003f14   0x0000026c   Code   RO         1028    i.lcd_debug4        ui.o
    0x08004180   0x08004180   0x0000001c   Code   RO         2382    i.lcd_drawpoint     seekfree_18tft.o
    0x0800419c   0x0800419c   0x000002d4   Code   RO         2383    i.lcd_init          seekfree_18tft.o
    0x08004470   0x08004470   0x0000005a   Code   RO         2384    i.lcd_set_region    seekfree_18tft.o
    0x080044ca   0x080044ca   0x00000002   PAD
    0x080044cc   0x080044cc   0x00000068   Code   RO         2385    i.lcd_showchar      seekfree_18tft.o
    0x08004534   0x08004534   0x000000c0   Code   RO         2386    i.lcd_showfloat     seekfree_18tft.o
    0x080045f4   0x080045f4   0x00000092   Code   RO         2389    i.lcd_showint8      seekfree_18tft.o
    0x08004686   0x08004686   0x00000032   Code   RO         2390    i.lcd_showstr       seekfree_18tft.o
    0x080046b8   0x080046b8   0x000000ac   Code   RO         1029    i.lcd_watch1        ui.o
    0x08004764   0x08004764   0x000000ac   Code   RO         1030    i.lcd_watch2        ui.o
    0x08004810   0x08004810   0x00000044   Code   RO         2393    i.lcd_writeData     seekfree_18tft.o
    0x08004854   0x08004854   0x00000044   Code   RO         2394    i.lcd_writeIndex    seekfree_18tft.o
    0x08004898   0x08004898   0x00000054   Code   RO         2395    i.lcd_writedata_16bit  seekfree_18tft.o
    0x080048ec   0x080048ec   0x00000108   Code   RO          522    i.main              main.o
    0x080049f4   0x080049f4   0x00000060   Code   RO         1031    i.menu1             ui.o
    0x08004a54   0x08004a54   0x00000060   Code   RO         1032    i.menu2             ui.o
    0x08004ab4   0x08004ab4   0x00000060   Code   RO         1033    i.menu3             ui.o
    0x08004b14   0x08004b14   0x00000060   Code   RO         1034    i.menu4             ui.o
    0x08004b74   0x08004b74   0x0000005c   Code   RO         1035    i.menu5             ui.o
    0x08004bd0   0x08004bd0   0x0000005c   Code   RO         1036    i.menu6             ui.o
    0x08004c2c   0x08004c2c   0x0000005c   Code   RO         1037    i.menu7             ui.o
    0x08004c88   0x08004c88   0x0000005c   Code   RO         1038    i.menu8             ui.o
    0x08004ce4   0x08004ce4   0x00000058   Code   RO         2738    i.mpu6050_init      seekfree_mpu6050.o
    0x08004d3c   0x08004d3c   0x00000028   Code   RO         2739    i.mpu6050_self1_check  seekfree_mpu6050.o
    0x08004d64   0x08004d64   0x00000170   Code   RO          590    i.my_adcfilter_get  control.o
    0x08004ed4   0x08004ed4   0x0000004c   Code   RO          841    i.my_timer          tim.o
    0x08004f20   0x08004f20   0x0000004c   Code   RO         1748    i.myadc_init        zf_adc.o
    0x08004f6c   0x08004f6c   0x00000060   Code   RO          786    i.mypwm_duty_updata  pwm.o
    0x08004fcc   0x08004fcc   0x00000230   Code   RO          788    i.mypwm_init        pwm.o
    0x080051fc   0x080051fc   0x00000014   Code   RO          789    i.mypwm_pin_init    pwm.o
    0x08005210   0x08005210   0x0000004c   Code   RO          756    i.nomal             nomalize.o
    0x0800525c   0x0800525c   0x00000088   Code   RO         1599    i.number_conversion_ascii  seekfree_printf.o
    0x080052e4   0x080052e4   0x00000024   Code   RO         1516    i.nvic_init         common.o
    0x08005308   0x08005308   0x000001bc   Code   RO         1039    i.org_adc           ui.o
    0x080054c4   0x080054c4   0x00000022   Code   RO         1600    i.printf_reverse_order  seekfree_printf.o
    0x080054e6   0x080054e6   0x00000002   PAD
    0x080054e8   0x080054e8   0x00000070   Code   RO         1375    i.ramp_stable       elect.o
    0x08005558   0x08005558   0x00000098   Code   RO         2656    i.read_ch           seekfree_iic.o
    0x080055f0   0x080055f0   0x0000002e   Code   RO         1040    i.ring              ui.o
    0x0800561e   0x0800561e   0x00000002   PAD
    0x08005620   0x08005620   0x00000314   Code   RO         1376    i.ring_stable       elect.o
    0x08005934   0x08005934   0x00000068   Code   RO         2657    i.sccb_waitack      seekfree_iic.o
    0x0800599c   0x0800599c   0x00000070   Code   RO         2658    i.send_ch           seekfree_iic.o
    0x08005a0c   0x08005a0c   0x00000018   Code   RO         2659    i.simiic_delay      seekfree_iic.o
    0x08005a24   0x08005a24   0x0000001c   Code   RO         2660    i.simiic_init       seekfree_iic.o
    0x08005a40   0x08005a40   0x0000004a   Code   RO         2661    i.simiic_read_reg   seekfree_iic.o
    0x08005a8a   0x08005a8a   0x00000062   Code   RO         2662    i.simiic_read_regs  seekfree_iic.o
    0x08005aec   0x08005aec   0x0000006c   Code   RO         2663    i.simiic_sendack    seekfree_iic.o
    0x08005b58   0x08005b58   0x00000050   Code   RO         2664    i.simiic_start      seekfree_iic.o
    0x08005ba8   0x08005ba8   0x00000054   Code   RO         2665    i.simiic_stop       seekfree_iic.o
    0x08005bfc   0x08005bfc   0x0000002a   Code   RO         2666    i.simiic_write_reg  seekfree_iic.o
    0x08005c26   0x08005c26   0x00000002   PAD
    0x08005c28   0x08005c28   0x000001c0   Code   RO         2103    i.spi_init          zf_spi.o
    0x08005de8   0x08005de8   0x00000050   Code   RO         2104    i.spi_mosi          zf_spi.o
    0x08005e38   0x08005e38   0x00000058   Code   RO         2105    i.spi_pin_init      zf_spi.o
    0x08005e90   0x08005e90   0x0000004c   Code   RO         7082    i.sqrt              m_ws.l(sqrt.o)
    0x08005edc   0x08005edc   0x000000d8   Code   RO         1377    i.stop_stable       elect.o
    0x08005fb4   0x08005fb4   0x0000004c   Code   RO         1041    i.subMenu1_1        ui.o
    0x08006000   0x08006000   0x0000004c   Code   RO         1042    i.subMenu1_2        ui.o
    0x0800604c   0x0800604c   0x0000004c   Code   RO         1043    i.subMenu1_3        ui.o
    0x08006098   0x08006098   0x000000ec   Code   RO         1044    i.subMenu1_4        ui.o
    0x08006184   0x08006184   0x00000050   Code   RO         1045    i.subMenu2_1        ui.o
    0x080061d4   0x080061d4   0x0000004c   Code   RO         1046    i.subMenu2_2        ui.o
    0x08006220   0x08006220   0x0000004c   Code   RO         1047    i.subMenu2_3        ui.o
    0x0800626c   0x0800626c   0x00000100   Code   RO         1048    i.subMenu2_4        ui.o
    0x0800636c   0x0800636c   0x0000004c   Code   RO         1049    i.subMenu3_1        ui.o
    0x080063b8   0x080063b8   0x0000004c   Code   RO         1050    i.subMenu3_2        ui.o
    0x08006404   0x08006404   0x0000004c   Code   RO         1051    i.subMenu3_3        ui.o
    0x08006450   0x08006450   0x00000108   Code   RO         1052    i.subMenu3_4        ui.o
    0x08006558   0x08006558   0x00000054   Code   RO         1053    i.subMenu4_1        ui.o
    0x080065ac   0x080065ac   0x00000054   Code   RO         1054    i.subMenu4_2        ui.o
    0x08006600   0x08006600   0x00000274   Code   RO         1055    i.subMenu4_3        ui.o
    0x08006874   0x08006874   0x0000005c   Code   RO         1056    i.subMenu4_4        ui.o
    0x080068d0   0x080068d0   0x00000050   Code   RO         1057    i.subMenu5_1        ui.o
    0x08006920   0x08006920   0x00000050   Code   RO         1058    i.subMenu5_2        ui.o
    0x08006970   0x08006970   0x00000050   Code   RO         1059    i.subMenu5_3        ui.o
    0x080069c0   0x080069c0   0x00000064   Code   RO         1060    i.subMenu5_4        ui.o
    0x08006a24   0x08006a24   0x00000068   Code   RO         1061    i.subMenu6_1        ui.o
    0x08006a8c   0x08006a8c   0x00000068   Code   RO         1062    i.subMenu6_2        ui.o
    0x08006af4   0x08006af4   0x00000068   Code   RO         1063    i.subMenu6_3        ui.o
    0x08006b5c   0x08006b5c   0x00000068   Code   RO         1064    i.subMenu6_4        ui.o
    0x08006bc4   0x08006bc4   0x00000068   Code   RO         1065    i.subMenu7_1        ui.o
    0x08006c2c   0x08006c2c   0x00000068   Code   RO         1066    i.subMenu7_2        ui.o
    0x08006c94   0x08006c94   0x00000068   Code   RO         1067    i.subMenu7_3        ui.o
    0x08006cfc   0x08006cfc   0x00000068   Code   RO         1068    i.subMenu7_4        ui.o
    0x08006d64   0x08006d64   0x00000068   Code   RO         1069    i.subMenu8_1        ui.o
    0x08006dcc   0x08006dcc   0x00000068   Code   RO         1070    i.subMenu8_2        ui.o
    0x08006e34   0x08006e34   0x00000068   Code   RO         1071    i.subMenu8_3        ui.o
    0x08006e9c   0x08006e9c   0x00000068   Code   RO         1072    i.subMenu8_4        ui.o
    0x08006f04   0x08006f04   0x00000026   Code   RO         2144    i.systick_delay     zf_systick.o
    0x08006f2a   0x08006f2a   0x00000002   PAD
    0x08006f2c   0x08006f2c   0x00000028   Code   RO         2145    i.systick_delay_ms  zf_systick.o
    0x08006f54   0x08006f54   0x00000034   Code   RO         2202    i.tim_encoder_get_count  zf_tim.o
    0x08006f88   0x08006f88   0x000000f0   Code   RO         2203    i.tim_encoder_init  zf_tim.o
    0x08007078   0x08007078   0x00000014   Code   RO         2204    i.tim_encoder_pin_init  zf_tim.o
    0x0800708c   0x0800708c   0x00000024   Code   RO         2205    i.tim_encoder_rst   zf_tim.o
    0x080070b0   0x080070b0   0x0000006c   Code   RO         1428    i.uart_handler      ultrasonic.o
    0x0800711c   0x0800711c   0x00000194   Code   RO         2280    i.uart_init         zf_uart.o
    0x080072b0   0x080072b0   0x00000024   Code   RO         2281    i.uart_pin_init     zf_uart.o
    0x080072d4   0x080072d4   0x00000020   Code   RO         2283    i.uart_putchar      zf_uart.o
    0x080072f4   0x080072f4   0x00000028   Code   RO         2285    i.uart_query        zf_uart.o
    0x0800731c   0x0800731c   0x0000004c   Code   RO         2286    i.uart_rx_irq       zf_uart.o
    0x08007368   0x08007368   0x00000028   Code   RO         1429    i.ultrasonic_init   ultrasonic.o
    0x08007390   0x08007390   0x000002e4   Code   RO         1601    i.zf_sprintf        seekfree_printf.o
    0x08007674   0x08007674   0x00000140   Data   RO         1074    .constdata          ui.o
    0x080077b4   0x080077b4   0x00001b88   Data   RO         2521    .constdata          seekfree_font.o
    0x0800933c   0x0800933c   0x00000004   PAD
    0x08009340   0x08009340   0x00000050   Data   RO         6991    .constdata          m_ws.l(asin.o)
    0x08009390   0x08009390   0x00000098   Data   RO         7054    .constdata          m_ws.l(atan.o)
    0x08009428   0x08009428   0x00000008   Data   RO         7080    .constdata          m_ws.l(qnan.o)
    0x08009430   0x08009430   0x00000020   Data   RO         7131    Region$$Table       anon$$obj.o


    Execution Region RW_IRAM1 (Exec base: 0x20000000, Load base: 0x08009450, Size: 0x000007f8, Max: 0x00020000, ABSOLUTE, COMPRESSED[0x000000ec])

    Exec Addr    Load Addr    Size         Type   Attr      Idx    E Section Name        Object

    0x20000000   COMPRESSED   0x00000098   Data   RW          551    .data               allinit.o
    0x20000098   COMPRESSED   0x0000004c   Data   RW          592    .data               control.o
    0x200000e4   COMPRESSED   0x00000004   Data   RW          683    .data               motor.o
    0x200000e8   COMPRESSED   0x000000e0   Data   RW          904    .data               scheduler.o
    0x200001c8   COMPRESSED   0x00000001   Data   RW          990    .data               key.o
    0x200001c9   COMPRESSED   0x00000003   PAD
    0x200001cc   COMPRESSED   0x00000038   Data   RW         1075    .data               ui.o
    0x20000204   COMPRESSED   0x00000024   Data   RW         1352    .data               imu.o
    0x20000228   COMPRESSED   0x00000018   Data   RW         1378    .data               elect.o
    0x20000240   COMPRESSED   0x0000000c   Data   RW         1430    .data               ultrasonic.o
    0x2000024c   COMPRESSED   0x00000014   Data   RW         1694    .data               system_mm32f327x.o
    0x20000260   COMPRESSED   0x0000000f   Data   RW         1749    .data               zf_adc.o
    0x2000026f   COMPRESSED   0x00000002   Data   RW         1885    .data               zf_flash.o
    0x20000271   COMPRESSED   0x00000003   PAD
    0x20000274   COMPRESSED   0x00000020   Data   RW         1954    .data               zf_gpio.o
    0x20000294   COMPRESSED   0x0000000c   Data   RW         2106    .data               zf_spi.o
    0x200002a0   COMPRESSED   0x00000020   Data   RW         2206    .data               zf_tim.o
    0x200002c0   COMPRESSED   0x00000028   Data   RW         2288    .data               zf_uart.o
    0x200002e8   COMPRESSED   0x0000000c   Data   RW         2667    .data               seekfree_iic.o
    0x200002f4   COMPRESSED   0x0000000c   Data   RW         2740    .data               seekfree_mpu6050.o
    0x20000300   COMPRESSED   0x00000004   Data   RW         7114    .data               mc_w.l(errno.o)
    0x20000304        -       0x000000c0   Zero   RW          591    .bss                control.o
    0x200003c4        -       0x00000030   Zero   RW         1073    .bss                ui.o
    0x200003f4   COMPRESSED   0x00000004   PAD
    0x200003f8        -       0x00000400   Zero   RW         1734    STACK               startup_mm32f327x_keil.o


==============================================================================

Image component sizes


      Code (inc. data)   RO Data    RW Data    ZI Data      Debug   Object Name

        80          8          0        152          0       2247   allinit.o
        24          0          0          0          0       2850   board.o
        68          0          0          0          0       6654   common.o
      1088        176          0         76        192       3889   control.o
      1512        264          0         24          0       2762   elect.o
        76         16          0          0          0       4836   hal_dma.o
        44         10          0          0          0       1100   hal_exti.o
       274         44          0          0          0       7523   hal_flash.o
       108         12          0          0          0       1116   hal_misc.o
        32          6          0          0          0        577   hal_rcc.o
       196         22          0          0          0      11031   hal_tim.o
      1556         74          0         36          0       2342   imu.o
      1114         88          0          0          0     131116   isr.o
       236         14          0          1          0       1034   key.o
       264         32          0          0          0        551   main.o
       142          0          0          0          0        838   math.o
       320         22          0          4          0       1978   motor.o
        76          6          0          0          0        600   nomalize.o
       676         14          0          0          0       1725   pwm.o
       570         94          0        224          0       5478   scheduler.o
      1760         36          0          0          0       8885   seekfree_18tft.o
         0          0       7048          0          0       1033   seekfree_font.o
       906         34          0         12          0       6683   seekfree_iic.o
       304         28          0         12          0       2515   seekfree_mpu6050.o
       910          4          0          0          0      16147   seekfree_printf.o
        36          8        400          0       1024        872   startup_mm32f327x_keil.o
       710         54          0         20          0       4184   system_mm32f327x.o
        76          4          0          0          0        451   tim.o
      8870       2050        320         56         48      24990   ui.o
       220         40          0         12          0       2103   ultrasonic.o
       510         22          0         15          0       5067   zf_adc.o
       262         12          0          2          0       3516   zf_flash.o
       668         28          0         32          0       4527   zf_gpio.o
       616         18          0         12          0       4290   zf_spi.o
        78          6          0          0          0       1051   zf_systick.o
       436         20          0         32          0       5091   zf_tim.o
       588         40          0         40          0       5020   zf_uart.o

    ----------------------------------------------------------------------
     25436       3306       7804        768       1268     286672   Object Totals
         0          0         32          0          0          0   (incl. Generated)
        30          0          4          6          4          0   (incl. Padding)

    ----------------------------------------------------------------------

      Code (inc. data)   RO Data    RW Data    ZI Data      Debug   Library Member Name

       624         52         80          0          0        168   asin.o
       544         70        152          0          0        124   atan.o
       412         38          0          0          0        144   atan2.o
        38          6          0          0          0        272   dunder.o
        40          0          0          0          0         68   fpclassify.o
       170          0          0          0          0         96   poly.o
         0          0          8          0          0          0   qnan.o
        76          0          0          0          0         84   sqrt.o
        86          0          0          0          0          0   __dczerorl2.o
         0          0          0          0          0          0   entry.o
         0          0          0          0          0          0   entry10a.o
         0          0          0          0          0          0   entry11a.o
         4          0          0          0          0          0   entry12b.o
         8          4          0          0          0          0   entry2.o
         4          0          0          0          0          0   entry5.o
         0          0          0          0          0          0   entry7b.o
         0          0          0          0          0          0   entry8b.o
         8          4          0          0          0          0   entry9a.o
        12          6          0          4          0         68   errno.o
        30          0          0          0          0          0   handlers.o
        36          8          0          0          0         68   init.o
         0          0          0          0          0          0   iusefp.o
        30          0          0          0          0         68   llshl.o
        36          0          0          0          0         68   llsshr.o
        32          0          0          0          0         68   llushr.o
        36          0          0          0          0         68   memcpya.o
        98          0          0          0          0         92   uldiv.o
        48          0          0          0          0         68   cdcmple.o
        48          0          0          0          0         68   cdrcmple.o
        20          0          0          0          0         68   cfcmple.o
        20          0          0          0          0         68   cfrcmple.o
        56          0          0          0          0         88   d2f.o
       334          0          0          0          0        148   dadd.o
       222          0          0          0          0        100   ddiv.o
       186          0          0          0          0        176   depilogue.o
        62          0          0          0          0         80   dfixi.o
        34          0          0          0          0         76   dflti.o
        26          0          0          0          0         76   dfltui.o
       228          0          0          0          0         96   dmul.o
        46          0          0          0          0         80   dscalb.o
       162          0          0          0          0        100   dsqrt.o
        38          0          0          0          0         68   f2d.o
       176          0          0          0          0        140   fadd.o
       124          0          0          0          0         88   fdiv.o
       110          0          0          0          0        168   fepilogue.o
        50          0          0          0          0         68   ffixi.o
        40          0          0          0          0         68   ffixui.o
        18          0          0          0          0         68   fflti.o
        10          0          0          0          0         68   ffltui.o
       100          0          0          0          0         76   fmul.o

    ----------------------------------------------------------------------
      4488        188        240          4          0       3560   Library Totals
         6          0          0          0          0          0   (incl. Padding)

    ----------------------------------------------------------------------

      Code (inc. data)   RO Data    RW Data    ZI Data      Debug   Library Name

      1904        166        240          0          0        956   m_ws.l
       420         22          0          4          0        500   mc_w.l
      2158          0          0          0          0       2104   mf_w.l

    ----------------------------------------------------------------------
      4488        188        240          4          0       3560   Library Totals

    ----------------------------------------------------------------------

==============================================================================


      Code (inc. data)   RO Data    RW Data    ZI Data      Debug   

     29924       3494       8044        772       1268     277464   Grand Totals
     29924       3494       8044        236       1268     277464   ELF Image Totals (compressed)
     29924       3494       8044        236          0          0   ROM Totals

==============================================================================

    Total RO  Size (Code + RO Data)                37968 (  37.08kB)
    Total RW  Size (RW Data + ZI Data)              2040 (   1.99kB)
    Total ROM Size (Code + RO Data + RW Data)      38204 (  37.31kB)

==============================================================================

